:100000000C946A010C9492010C9492010C9492014C
:100010000C9492010C9492010C9492010C94920114
:100020000C9492010C9492010C94850A0C9417097B
:100030000C9492010C9492010C9492010C949201F4
:100040000C9492010C9492010C9492010C949201E4
:100050000C9492010C9492010C9492010C9417044C
:100060000C9492010C9492010C9492010C949201C4
:100070000C9492010C9492010C9492010C949201B4
:100080000C9492010C9492010C9492010C949201A4
:100090000C9492010C9492010C9492010C94920194
:1000A0000C9492010C9492010C94920137053A053C
:1000B00029052D0533055B055B055B053E054205FE
:1000C00046054C0550055B05560505010905A101CE
:1000D000850405091901290F15002501950F7501E2
:1000E0008102950175018103050109300931093249
:1000F0001581257F95037508810285051500250169
:10010000050A0901A1020508094B75019501910233
:10011000C0050A0902A1020508094B750195019164
:1001200002C0050A0903A1020508094B75019501E2
:100130009102C0050A0904A1020508094B75019541
:10014000019102C0050A0905A1020508094B7501C4
:1001500095019102C0050A0906A1020508094B751F
:100160000195019102C0050A0907A1020508094B82
:10017000750195019102C0050A0908A10205080947
:100180004B750195019102C0050A0909A1020508F4
:10019000094B750195019102C0050A090AA10205E2
:1001A00008094B750195019102C0050A090BA102CE
:1001B0000508094B750195019102C09501750591DE
:1001C00003C00000000200090F0000030401000C3E
:1001D000000000000000000000000000000000001F
:1001E0000004080201104080401020408040800838
:1001F00002040180402010020110801020404020A5
:1002000004040404040304050202020204030202BB
:1002100002020606060606060404020202040400A0
:100220000000002300260029002C002F0000000001
:1002300000250028002B002E0031000000000024C3
:100240000027002A002D00300012010002EF0201F9
:100250004041233680000101020301120100020027
:100260000000404123368000010102030141726415
:1002700075696E6F204C4C430041726475696E6FF6
:10028000204C656F6E6172646F0004030904080BF3
:100290000002020201000904000001020200000540
:1002A000240010010524010101042402060524068E
:1002B00000010705810310004009040100020A0043
:1002C000000007050202400000070583024000000D
:1002D0004303110C11241FBECFEFDAE0DEBFCDBF08
:1002E00011E0A0E0B1E0ECE6F8E102C005900D926B
:1002F000A434B107D9F721E0A4E4B1E001C01D9214
:10030000A53EB207E1F712E0C4EDD2E004C02297A7
:10031000FE010E94300CC03DD107C9F70E941C0BA2
:100320000C94340C0C940000FB0128E4208329E495
:10033000218324E42283DC011D962C911D972F70CC
:100340002F5B23831D968D919C911E9724E096959B
:1003500087952A95E1F78F708F5B848385E00895F8
:10036000CF93DF93CDB7DEB769970FB6F894DEBFB2
:100370000FBECDBFFC01DB018C918F5F8C93BE0162
:100380006F5F7F4F89E1DB011D928A95E9F799E064
:10039000998384E08A8321E02D8383E08E839A878A
:1003A00091E29B872C872D872F8792E2988B97E08D
:1003B0009B8B95E09C8B8E8B80E490E0988F8F8B4D
:1003C000298F82818B8395858685998B8A8B838102
:1003D00080688D8B49E150E080E00E94B308699607
:1003E0000FB6F894DEBF0FBECDBFDF91CF91089559
:1003F000EF92FF920F931F93CF93DF937C01FB014A
:100400008081813871F58381823259F5D701129646
:100410008C91129790E0248135812817390709F5CE
:100420001B96CD91DC911C9700E010E0209789F09D
:100430004C815D816A817B8180E80E94B3088F3F97
:10044000BFEF9B0759F0080F191F0990D881C02DE5
:10045000EDCF81E0F7018787C80105C08FEF9FEFDF
:1004600002C080E090E0DF91CF911F910F91FF904B
:10047000EF900895CF93DF9300D01F92CDB7DEB7F2
:10048000DC01FB0112962C91129730E0848195815A
:100490002817390799F591818081813A31F481E0FB
:1004A000913069F1933051F52AC0813239F59B3092
:1004B00021F482811F968C931FC09A3021F482818F
:1004C00050968C9319C09930C9F48681978103970F
:1004D000A9F463E070E0CE0101960E94E40803975E
:1004E00059F48B8190E0982F88272A81820F911DE3
:1004F00090935E0180935D0181E001C080E00F90E8
:100500000F900F90DF91CF910895FC01A385B485E2
:10051000109719F47487638709C08D919C91119786
:10052000009711F0DC01F9CF6D937C93858596855A
:10053000DB0114962D913C911597820F931F96879E
:1005400085870895AF92BF92CF92DF92EF92FF928C
:100550000F931F93CF93DF931F92CDB7DEB77C012C
:1005600069836A01590141E050E0BE016F5F7F4F2E
:10057000FC0183810E9418088C0197FD0BC0F701D4
:100580008381A501B60180640E94180897FD02C00E
:10059000800F911F0F90DF91CF911F910F91FF90CE
:1005A000EF90DF90CF90BF90AF900895CF93DF93FF
:1005B000EC0121E02C832D830A969F838E8319867C
:1005C00018868BE291E0998388831C861B861E86A1
:1005D0001D862F87288B81EC8A870E94C206BE0168
:1005E000DF91CF910C947B0680915501811107C05A
:1005F00084E491E00E94D60281E08093550184E476
:1006000091E0089580916601811113C010926001FC
:1006100010925F018AEC90E09093620180936101F7
:1006200088EF90E0909364018093630181E0809370
:1006300066010E94F4026FE571E00C948502CF938D
:10064000DF9300D000D01F92CDB7DEB7FB019081C1
:10065000818199838A8382818B8383818C83848146
:100660008D830E94F40225E030E0AE014F5F5F4FC2
:1006700064E00E94A2020F900F900F900F900F90D5
:10068000DF91CF91089585E691E00C9402030F93DA
:100690001F93CF93DF93C9E0D1E0082F10E09E01B4
:1006A000295031408091130190E02817390784F4D4
:1006B000C80102C0959587952A95E2F780FF02C090
:1006C00061E001C060E088810E9495052196E7CF36
:1006D000DF91CF911F910F9108950F931F93CF93A7
:1006E000DF9368EE73E080E090E00E948404C0E055
:1006F000D1E009E011E08091130190E09E012050CB
:10070000314062E02817390754F489910E945C0552
:1007100061E0F80181918F010E945C05ECCF80912E
:100720006E01DF91CF911F910F910C945C05EF92B8
:10073000FF920F931F93CF93DF9300E011E0EE241D
:10074000E394F12CE801C050D1408091130190E076
:10075000C817D9074CF5F80181918F010E94CB058C
:1007600020917001309171018130910571F0C701C4
:1007700002C0880F991FCA95E2F7EC01C22BD32B58
:10078000D0937101C0937001DDCF0C2E02C0880F91
:10079000991F0A94E2F78095909582239323909372
:1007A000710180937001CECF80916F01811103C0E0
:1007B0008091700104C080915D0190915E010E9462
:1007C000470380916E010E94CB05019701F1809152
:1007D0007001909171018130910519F410926F01AF
:1007E00016C08430910521F481E080936F010FC021
:1007F0008031910519F480E092E005C080349105C4
:1008000031F480E094E0909371018093700160E78F
:1008100071E085E691E00E941F0380ED97E0DF9193
:10082000CF911F910F91FF90EF900C94BE041F92F7
:100830000F920FB60F9211242F933F938F939F9394
:10084000AF93BF938091760190917701A091780149
:10085000B09179013091750123E0230F2D3720F4F9
:100860000196A11DB11D05C026E8230F0296A11D0A
:10087000B11D209375018093760190937701A09329
:100880007801B093790180917A0190917B01A091D8
:100890007C01B0917D010196A11DB11D80937A016B
:1008A00090937B01A0937C01B0937D01BF91AF91A8
:1008B0009F918F913F912F910F900FBE0F901F909E
:1008C00018953FB7F89480917A0190917B01A0919F
:1008D0007C01B0917D0126B5A89B05C02F3F19F082
:1008E0000196A11DB11D3FBF6627782F892F9A2F32
:1008F000620F711D811D911D42E0660F771F881FD9
:10090000991F4A95D1F708958F929F92AF92BF9207
:10091000CF92DF92EF92FF926B017C010E94610403
:100920004B015C01C114D104E104F104F1F00E9417
:100930002F0B0E946104681979098A099B09683E96
:1009400073408105910570F321E0C21AD108E108D6
:10095000F10888EE880E83E0981EA11CB11CC1141A
:10096000D104E104F10429F7DDCFFF90EF90DF908F
:10097000CF90BF90AF909F908F9008958230910557
:1009800038F0880F991F880F991F05970197F1F785
:100990000895789484B5826084BD84B5816084BDF7
:1009A00085B5826085BD85B5816085BDEEE6F0E0E8
:1009B000808181608083E1E8F0E010828081826044
:1009C0008083808181608083E0E8F0E080818160C5
:1009D0008083E1E9F0E080818260808380818160B2
:1009E0008083E0E9F0E0808181608083E1ECF0E0E9
:1009F0008081846080838081826080838081816047
:100A00008083E3ECF0E0808181608083E0ECF0E0C3
:100A1000808182608083E2ECF0E08081816080836D
:100A2000EAE7F0E080818460808380818260808357
:100A3000808181608083808180688083089590E0D8
:100A4000FC013197EF30F105B0F5EA5AFF4F0C94F5
:100A50002E0C809180008F7703C0809180008F7D65
:100A600080938000089580918000877FF9CF84B5BE
:100A70008F7702C084B58F7D84BD089580919000EA
:100A80008F7707C0809190008F7D03C08091900088
:100A9000877F8093900008958091C0008F7703C076
:100AA0008091C0008F7D8093C00008958091C20026
:100AB000877F8093C2000895CF93DF9390E0FC017D
:100AC000EF51FE4F2491FC01E050FE4F84918823AA
:100AD00049F190E0880F991FFC01E55CFD4FA5915D
:100AE000B491835D9D4FFC01C591D4919FB7611175
:100AF00008C0F8948C91209582238C93888182235E
:100B00000AC0623051F4F8948C91322F30958323CF
:100B10008C938881822B888304C0F8948C91822BDB
:100B20008C939FBFDF91CF9108950F931F93CF9325
:100B3000DF931F92CDB7DEB7282F30E0F901EE53D7
:100B4000FE4F8491F901EF51FE4F1491F901E050ED
:100B5000FE4F04910023C9F0882321F069830E948D
:100B60001F056981E02FF0E0EE0FFF1FE35DFD4FF1
:100B7000A591B4919FB7F8948C91611103C0109521
:100B8000812301C0812B8C939FBF0F90DF91CF9168
:100B90001F910F910895CF93DF93282F30E0F90133
:100BA000EE53FE4F8491F901EF51FE4FD491F901BC
:100BB000E050FE4FC491CC2391F081110E941F059B
:100BC000EC2FF0E0EE0FFF1FE15EFD4FA591B49119
:100BD0002C912D2381E090E021F480E002C080E0A0
:100BE00090E0DF91CF910895EF92FF920F931F93C2
:100BF000CF93DF937B01FC01C281D38100E010E041
:100C0000209781F0E881F9810280F381E02DB7011E
:100C1000CE01099597FD08C0080F191F0884D985D2
:100C2000C02DEECFC80102C08FEF9FEFDF91CF91B3
:100C30001F910F91FF90EF9008950F931F93CF9303
:100C4000DF938B01FC01C281D381209771F0E88191
:100C5000F9810480F581E02DB801CE010995009756
:100C600031F40884D985C02DF0CF80E090E0DF9189
:100C7000CF911F910F9108950F931F93CF93DF93FF
:100C80008B01FC01C281D381209771F0E881F98149
:100C90000680F781E02DB801CE010995080F111DDE
:100CA0000884D985C02DF0CFF8011082DF91CF9153
:100CB0001F910F9108950F931F93CF93DF938B0193
:100CC000FC01C281D381209771F0E881F981019004
:100CD000F081E02DB801CE010995811106C008848C
:100CE000D985C02DF0CF80E001C081E0DF91CF91A8
:100CF0001F910F910895CF93DF93FC01DB012181B8
:100D000014968C91149790E0820F911D0897B4F57A
:100D1000C281D381209719F47383628308C08885C8
:100D20009985009711F0EC01FACFB987A8878081E7
:100D300012968C931297818113968C9313978081CE
:100D400015969C911597890F808380E014969C914D
:100D50001497891788F41696CD91DC911797C80FD0
:100D6000D11D9881C181D0E0CC5EDE4F9883918106
:100D70009F5F91838F5FEACF81E001C080E0DF91C8
:100D8000CF9108958091820181110DC082E08093FE
:100D90007E0184E080937F01109281011092800196
:100DA00081E0809382018EE791E00895615030F0F8
:100DB0002091F100FC0120830196F8CF289884E669
:100DC00080939301089540918E0150918F0120915D
:100DD0008C0130918D0142175307B4F49091E800D3
:100DE0009570E1F39091E80092FD19C08093F100B5
:100DF00080918E0190918F0101968F739927892B95
:100E000019F48EEF8093E80080918E0190918F010C
:100E1000019690938F0180938E0181E0089580E088
:100E20000895CF92DF92EF92FF920F931F93CF938B
:100E3000DF931F92CDB7DEB7082F162FF42E862F23
:100E4000880F8E5F99830E94E30683E00E94E30689
:100E5000E02EC02E9981D92E8C2D8E19811798F4F1
:100E6000F601F7FE02C0849101C080810E94E30672
:100E7000082F80E00E94E3068023FFEFCF1ADF0AED
:100E80008111EACF01C081E00F90DF91CF911F91D6
:100E90000F91FF90EF90DF90CF9008958091D70051
:100EA00081608093D70080EA8093D80089B5806103
:100EB00089BD89B5826089BD09B400FEFDCF61E0BE
:100EC00070E080E090E00E9484048091D8008F7CE4
:100ED00080618093D8008091E000807F8093E00063
:100EE0000895CF93DF931F92CDB7DEB71982CE015D
:100EF00001960E948D0B0E94C206BE016F5F7F4F5C
:100F00000E94F40589810F90DF91CF9108952FB74A
:100F1000FC012083F89467706093E9000895CF93F3
:100F2000DF931F92CDB7DEB7682FCE0101960E94E6
:100F300087078091F20099819FBF0F90DF91CF9139
:100F40000895FF920F931F93CF93DF9300D0CDB7F7
:100F5000DEB7F62E8A0190919201992311F057FF86
:100F600003C08FEF9FEF2BC0682FCE0101967A83CD
:100F70000E9487078091F20090E0A8017A81801793
:100F800091070CF4AC01EF2DF72FF40E84E6FE165A
:100F900039F02898809393019091F1009193F7CFC5
:100FA0004115510521F08091F200882321F08981BB
:100FB0008FBFCA0104C08BE68093E800F8CF0F9082
:100FC0000F90DF91CF911F910F91FF900895CF93D4
:100FD000DF931F92CDB7DEB741E050E0BE016F5FF7
:100FE0007F4F0E94A107019719F4898190E002C008
:100FF0008FEF9FEF0F90DF91CF910895CF93DF9305
:101000001F92CDB7DEB7682FCE0101960E948707E9
:101010009091E800892F807295FF04C09091F200B2
:1010200080E4891B99819FBF0F90DF91CF91089534
:101030006F927F928F929F92AF92BF92CF92DF92E8
:10104000EF92FF920F931F93CF93DF931F92CDB731
:10105000DEB7782E7B01C42EB52E809192018823B5
:1010600069F0042F152F8AEFD82E872D8072982EC5
:101070009AE3A92E872D8074882E11C08FEF9FEFE1
:1010800057C0872D0E94FE07682E81110CC0DA948C
:10109000A9F361E070E080E090E00E948404011513
:1010A000110579F73BC0282F30E0021713070CF425
:1010B000602E672DCE0101960E9487078091E8007F
:1010C00085FF29C0262D30E0021B130B992039F033
:1010D0006A948FEF6816B1F01092F100F9CFF70122
:1010E000862D77FE07C0815058F094919093F100BF
:1010F0003196F9CF815020F091919093F100FACF81
:10110000E20EF31E8091E80085FF0FC00115110566
:1011100011F481100AC089818FBFC1CF5D9884E628
:10112000809394018C2D9B2D03C0A092E800F3CFF7
:101130000F90DF91CF911F910F91FF90EF90DF9073
:10114000CF90BF90AF909F908F907F906F900895B9
:101150001092E90010928F0110928E0190938D01F0
:1011600080938C010895CF92DF92FF920F931F938B
:10117000CF93DF9300D0CDB7DEB7F82E8A016B0195
:1011800001151105B1F0F601F7FE02C0849101C00E
:10119000808149835A830E94E30601501109FFEFC1
:1011A000CF1ADF0A49815A818111EACF8FEF9FEF71
:1011B00001C0CA010F900F90DF91CF911F910F9145
:1011C000FF90DF90CF900895BF92CF92DF92EF9281
:1011D000FF920F931F93CF93DF936C018B01EB0171
:1011E0003BEFB32E2097C1F07E01C134D1051CF036
:1011F00020E4E22EF12C8091E80082FFFCCFC801B0
:101200008C1B9D0B6E2D8C0D9D1D0E94D606B092E1
:10121000E800CE19DF09E6CFC801DF91CF911F9119
:101220000F91FF90EF90DF90CF90BF9008951F92A5
:101230000F920FB60F921124DF92EF92FF920F934D
:101240001F932F933F934F935F936F937F938F934E
:101250009F93AF93BF93EF93FF93CF93DF93CDB75C
:10126000DEB76C97DEBFCDBF1092E9008091E80039
:1012700083FF23C168E0CE0145960E94D60682EF27
:101280008093E8003D8937FF05C08091E80080FF2A
:10129000FCCF03C08EEF8093E800832F807609F0A7
:1012A000F0C02E894F89D88C21110CC0303829F418
:1012B000809191018093F10002C01092F100109290
:1012C000F100F4C0842F90E09D29213049F43111C0
:1012D000EDC0019709F0EAC0809191018D7F0AC0AD
:1012E000233059F43111E2C0019709F0DFC0809139
:1012F0009101826080939101D9C0253041F48091A1
:10130000E80080FFFCCF40684093E300CFC0263068
:1013100009F08DC0EB8CFC8C22E0D2122CC080E056
:1013200090E00E94A8080E94710799E08E010F5F6B
:101330001F4FF801292F11922A95E9F79983DA8234
:1013400091E09E8390EA98879AEF998720918E0189
:1013500030918F01275F3F4F3C832B838D83C701E3
:101360000E94A80849E050E0B80180E00E94B3085C
:101370000E9471079BC0C7010E94A8080E94C20674
:10138000BE016B5E7F4F0E941D06009719F00CF0A6
:101390008DC090C081E0D8120EC08B8D9C8D0897B7
:1013A00019F481E080938B0180918B0181112FC012
:1013B0006BE572E031C0E3E0DE127CC08F898823E8
:1013C00049F1823029F440E860E189E792E01CC0ED
:1013D000813029F440E86BE08DE692E015C083305F
:1013E00009F068C00E94C2068E010F5F1F4FB8014E
:1013F0000E943C06F80101900020E9F73197E01BBC
:10140000F10B40E06E2FC8010E9411074DC069E446
:1014100072E002C06AE872E06115710509F44AC021
:10142000FB01449150E080E80E94B3083FC02730A0
:1014300009F440C0283021F481E08093F10036C0E7
:101440002930A1F53370B1F5E5E1F1E081E021E06B
:1014500036E39081992361F08093E9002093EB00BB
:1014600091919093EC003093ED008F5F873089F776
:101470008EE78093EA001092EA008F8980939201B0
:1014800015C08B8D9C8D0E94A808898D811105C087
:10149000CE0145960E94980B07C00E94C206BE016D
:1014A0006B5E7F4F0E945B06882321F08EEF809356
:1014B000E80003C081E28093EB006C960FB6F894CD
:1014C000DEBF0FBECDBFDF91CF91FF91EF91BF91F6
:1014D000AF919F918F917F916F915F914F913F91CC
:1014E0002F911F910F91FF90EF90DF900F900FBE03
:1014F0000F901F9018958093E9008091F200882347
:1015000019F08AE38093E80008951F920F920FB6B6
:101510000F9211242F933F934F935F936F937F9379
:101520008F939F93AF93BF93CF93EF93FF93C0910C
:10153000E1008091E100837F8093E1008093E100EE
:10154000C3FF0FC01092E90081E08093EB0010927E
:10155000EC0082E38093ED001092920188E080938A
:10156000F000C2FF19C083E00E947B0A80919401C1
:10157000882339F0809194018150809394018823CD
:1015800089F180919301882339F0809193018150F2
:1015900080939301882341F1C4FF10C08091E20041
:1015A0008E7E81608093E2008091E1008F7E809347
:1015B000E100809190018E7E806111C0C0FF16C055
:1015C0008091E2008E7E80618093E2008091E10054
:1015D0008E7E8093E100809190018E7E8160809369
:1015E000900104C05D9ACDCF289AD6CFFF91EF919C
:1015F000CF91BF91AF919F918F917F916F915F91AB
:101600004F913F912F910F900FBE0F901F90189503
:101610001092920110929101109290010E944E0737
:10162000E1EEF0E080818E7E80838DE08093E200A9
:10163000559A209A089508950E94C9040E941B0B90
:101640008AE891E00E94080B0E946D03C0E0D0E0A0
:101650000E9497032097E1F30E940000F9CF0895BC
:10166000CF93DF931F92CDB7DEB76983DC01ED9195
:10167000FC910280F381E02D41E050E0BE016F5FFC
:101680007F4F09950F90DF91CF910895CF93DF930E
:10169000EC018C859D8597FF05C082E00E94E707DD
:1016A0009D878C878C859D85DF91CF91089583E000
:1016B0000C947B0AFC018485958597FD06C082E029
:1016C0000E948F0790E00196089582E00E948F07A4
:1016D00090E00895FC018485958597FD05C02FEF66
:1016E0003FEF35872487089582E00C94E707CF9376
:1016F000DF93EC0180912601882331F083E00E9482
:1017000018081816190634F081E090E09B838A834C
:1017100080E090E0DF91CF910895FC0120812E5F61
:10172000208342E450E06EE872E080E80C94B30855
:10173000FC0121818081813A59F4213209F05CC099
:1017400047E050E06FE171E080E00E94B30867C0BD
:10175000813209F051C0233289F4838190E0982FBF
:1017600088273281832BA0E0B0E080931B01909307
:101770001C01A0931D01B0931E010FC0203239F44B
:1017800067E070E08FE191E00E94E4080AC0223235
:1017900021F482818093260104C02D7F203209F03C
:1017A0003EC080911F0190912001A0912101B09134
:1017B0002201803B9440A105B10501F580912601ED
:1017C00080FD1CC080910008909101089093FF0A51
:1017D0008093FE0A87E797E79093010880930008BB
:1017E0002BE088E190E00FB6F894A8958093600014
:1017F0000FBE2093600013C080E0089588E10FB60B
:10180000F89480936000109260000FBEA8958091BC
:10181000FE0A9091FF0A909301088093000881E0EE
:101820000895109298011092970188EE93E0A0E03D
:10183000B0E08093990190939A01A0939B01B0939B
:101840009C0187E391E090939601809395018FEF3F
:101850009FEF9093A2018093A1010895EE0FFF1FC7
:0C1860000590F491E02D0994F894FFCF5E
:10186C000B0C0D12131415161701020304050607B1
:10187C0008090A0900C18081000000FFFFFFFF007A
:10188C00E1000000000000000000003A02B001F886
:10189C0001940100000000300B770B5A0B6A0B46C9
:0418AC000B570B00CB
:00000001FF
