:1000000000800020BD010000C931000095310000D2
:1000100095310000953100009531000095310000C8
:10002000953100009531000095310000C931000084
:10003000C931000095310000C93100008531000050
:10004000C9310000C9310000C9310000C9310000C8
:10005000C9310000C9310000C9310000C9310000B8
:10006000C9310000C9310000C9310000C9310000A8
:10007000C9310000C9310000C9310000C931000098
:10008000C9310000C9310000C9310000C931000088
:10009000C9310000C9310000C9310000C931000078
:1000A000C9310000C9310000C9310000C931000068
:1000B000C9310000C9310000C9310000C931000058
:1000C000C9310000C9310000C9310000C931000048
:1000D000C9310000C9310000C9310000C931000038
:1000E000C9310000C9310000C9310000C931000028
:1000F000C9310000C1190000C93100007D20000095
:10010000C93100007D250000C9310000C93100005F
:10011000C9310000C9310000C9310000C9310000F7
:10012000C9310000C9310000C9310000C9310000E7
:10013000C9310000C9310000C9310000C9310000D7
:10014000C9310000C9310000C9310000C9310000C7
:10015000C9310000C9310000C9310000C9310000B7
:10016000C931000061280000C9310000C931000018
:10017000C9310000C9310000C9310000C931000097
:10018000C9310000C9310000C9310000C931000087
:10019000C9310000C9310000C9310000C931000077
:1001A000C9310000C9310000C9310000C931000067
:1001B000C9310000C9310000C9310000564B4CF272
:1001C000205210B51A804DF628121A8000BF00BFC9
:1001D00002F0FEFF514B4FF010621A60504A9A60D5
:1001E000504ADA60A3F53043203B1A6812F480725B
:1001F00004D14D490A604FF4A8521A604B4B1A784B
:10020000110703D51A7842F008021A70484B2A22C7
:100210001A700023474A48499818884204D247492F
:10022000595899500433F5E7454A464B9A424FF0E6
:10023000000302D242F8043BF7E74349434A5958C6
:1002400099500433B3F5DE7FF7D1414B802103F899
:10025000011B40498B42F9D13F4B1A603F4B8A2228
:100260001A70A3F5805324225A70A0221A709A792A
:100270009207FCD59A79D406FCD4394B9A7902F0CE
:100280000C02082AF9D105221A7143225A719A796F
:100290009006FCD5324B9A795106FBD5314A4FF086
:1002A000817111600521516020221A702C4B9B79BD
:1002B00003F00C030C2BF9D12B4B2C4A1A602C4B5E
:1002C0002C4A1A6000225A60072243F8042C2A4A5A
:1002D000C3F80C2D62B600F0E7FD134B1B68DA077C
:1002E00005D5264800F0EAFC254B264A1A60264B25
:1002F0001B785B0609D5224C224A2368934204D11D
:100300001E4800F0DBFC0023236003F097FB02F0A3
:1003100065FF00F019FEFEE70E2005403080044026
:10032000823F04000100002B14D0034002D007409C
:1003300000E00740F087FF1F548BFF1FB03E000016
:10034000548BFF1F148FFF1F000000000082FF1F4F
:1003500000E400E05FE400E008ED00E0005006404B
:10036000004006404480044004800440C010050062
:1003700014E000E03F190100000020200C36BC54BE
:100380001CE00340A5C3945A00F00740FFFFFFFFA5
:10039000FFFFFFFFFFFFFFFFFFFFFFFFFFFFFFFF6D
:1003A000FFFFFFFFFFFFFFFFFFFFFFFFFFFFFFFF5D
:1003B000FFFFFFFFFFFFFFFFFFFFFFFFFFFFFFFF4D
:1003C000FFFFFFFFFFFFFFFFFFFFFFFFFFFFFFFF3D
:1003D000FFFFFFFFFFFFFFFFFFFFFFFFFFFFFFFF2D
:1003E000FFFFFFFFFFFFFFFFFFFFFFFFFFFFFFFF1D
:1003F000FFFFFFFFFFFFFFFFFFFFFFFFFFFFFFFF0D
:10040000FFFFFFFFFFFFFFFFFFFFFFFFDEF9FFFF23
:1004100010B5054C237833B9044B13B10448AFF33E
:1004200000800123237010BD548BFF1F00000000CB
:10043000B03E000008B5064B1BB106480649AFF3B5
:1004400000800648036813B1054B03B1984708BD07
:1004500000000000B03E0000588BFF1F548BFF1FB0
:100460000000000000207047044BFF221A70002299
:100470005A80DA604FF0FF329A607047F88BFF1FA6
:1004800010B50368017A1C7843681A78437A1A40D9
:10049000837A0C4203F0030318BF43F004030AB14C
:1004A00043F008039A10013B82720D2B14D8DFE849
:1004B00003F0070A0D0A1310070710130A0D0A07A5
:1004C000C368013307E0C368013B04E0C36802333B
:1004D00001E0C368023BC36010BDFFFF08B5034BDA
:1004E000D3F88400FFF7CCFF08BD00BF708BFF1F5F
:1004F00008B5034BD3F88000FFF7C2FF08BD00BF6B
:10050000708BFF1F08B5024BD86FFFF7B9FF08BD0E
:10051000708BFF1F08B5024B986FFFF7B1FF08BD46
:10052000708BFF1F08B5024B586FFFF7A9FF08BD7E
:10053000708BFF1F08B5024B186FFFF7A1FF08BDB6
:10054000708BFF1F08B5024BD86EFFF799FF08BDEF
:10055000708BFF1F08B5024B986EFFF791FF08BD27
:10056000708BFF1F08B5024B586EFFF789FF08BD5F
:10057000708BFF1F08B5024B186EFFF781FF08BD97
:10058000708BFF1F08B5024BD86DFFF779FF08BDD0
:10059000708BFF1F08B5024B986DFFF771FF08BD08
:1005A000708BFF1F08B5024B586DFFF769FF08BD40
:1005B000708BFF1F08B5024B186DFFF761FF08BD78
:1005C000708BFF1F08B5024BD86CFFF759FF08BDB1
:1005D000708BFF1F08B5024B986CFFF751FF08BDE9
:1005E000708BFF1F08B5024B586CFFF749FF08BD21
:1005F000708BFF1F08B5024B186CFFF741FF08BD59
:10060000708BFF1F08B5024BD86BFFF739FF08BD91
:10061000708BFF1F08B5024B986BFFF731FF08BDC9
:10062000708BFF1F08B5024B586BFFF729FF08BD01
:10063000708BFF1F08B5024B186BFFF721FF08BD39
:10064000708BFF1F08B5024BD86AFFF719FF08BD72
:10065000708BFF1F08B5024B986AFFF711FF08BDAA
:10066000708BFF1F08B5024B586AFFF709FF08BDE2
:10067000708BFF1F08B5024B186AFFF701FF08BD1A
:10068000708BFF1F08B5024BD869FFF7F9FE08BD54
:10069000708BFF1F08B5024B9869FFF7F1FE08BD8C
:1006A000708BFF1F08B5024B5869FFF7E9FE08BDC4
:1006B000708BFF1F08B5024B1869FFF7E1FE08BDFC
:1006C000708BFF1F08B5024BD868FFF7D9FE08BD35
:1006D000708BFF1F08B5024B9868FFF7D1FE08BD6D
:1006E000708BFF1F08B5024B5868FFF7C9FE08BDA5
:1006F000708BFF1F08B5024B1868FFF7C1FE08BDDD
:10070000708BFF1F08B5212800F2D580DFE810F0BC
:10071000220027002C00310036003C00410046003A
:100720004B00500055005A005F00640069006E00E5
:10073000730078007D00820087008C009100960095
:100740009B00A000A500AA00AF00B400B900BE0045
:10075000C300CD00594B002019605949A0E0574B08
:100760000120596057499BE0544B0220996056493B
:1007700096E0524B0320D960544991E04F4B04203E
:100780001961024652498CE04C4B05205961514990
:1007900086E04A4B062099614F4981E0474B07208C
:1007A000D9614E497CE0454B082019624C4977E0FD
:1007B000424B092059624B4972E0404B0A20996232
:1007C00049496DE03D4B0B20D962484968E03B4BFD
:1007D0000C201963464963E0384B0D2059634549A5
:1007E0005EE0364B0E209963434959E0334B0F20AE
:1007F000D963424954E0314B1020196440494FE01D
:100800002E4B112059643F494AE02C4B1220996429
:100810003D4945E0294B1320D9643C4940E0274B32
:10082000142019653A493BE0244B15205965394994
:1008300036E0224B16209965374931E01F4B1720CF
:10084000D96536492CE01D4B18201966344927E03C
:100850001A4B19205966334922E0184B1A20996621
:1008600031491DE0154B1B20D966304918E0134B68
:100870001C2019672E4913E0104B1D2059672D4984
:100880000EE00E4B1E2099672B4909E00B4B1F20F1
:10089000D9672A4904E0094BC3F880102849202071
:1008A000042200F07BFA012008BD044B2120C3F88C
:1008B00084102449F4E7002008BD00BF708BFF1F9F
:1008C000F5060000E5060000D5060000C50600009C
:1008D000B5060000A506000095060000850600008C
:1008E000750600006506000055060000450600007C
:1008F000350600002506000015060000050600006C
:10090000F5050000E5050000D5050000C50500005F
:10091000B5050000A505000095050000850500004F
:10092000750500006505000055050000450500003F
:10093000350500002505000015050000050500002F
:10094000F1040000DD04000070B5044615460E46B3
:100950000846022100F0F0F92846022100F0ECF9E7
:10096000174A52F8363003F50071216001212172D7
:1009700052F83520617202F500700021E16060607C
:100980004BF6803101397FF4FDAF93F8003292F8D5
:10099000002203F00103D20744BF43F00203DBB29D
:1009A000A37221463046FFF7ADFE2146207428464B
:1009B000FFF7A8FE237C18442074204670BD00BFBA
:1009C000A83B000010B500240A4B0221185D023438
:1009D00000F0B2F9102CF7D10024074B0121185D6B
:1009E000013400F0A9F9082CF7D1044B01221A7048
:1009F00010BD00BFCC88FF1FDC88FF1F488CFF1F85
:100A0000F8B500244C4D285D254400F087F96A783C
:100A1000013AD2B278B1072A16D8484B012101FA1F
:100A200002F2197821EA02021A70454B1B785BB971
:100A300000F0AEF808E0072A06D8404B012101FA81
:100A400002F219780A43EFE70234102CDAD13D4C58
:100A500004F13007237C012B04D872B62046FFF73F
:100A60000FFD00E072B6E56862B6002D3CD0237D34
:100A7000334E782B284621D102F040FD324B002224
:100A800002F0CCFE02F0B2FF304B0340002B03DA41
:100A9000013B63F0FF030133284A537033780BB9ED
:100AA00000F076F82A4E2B49336830465B680C22FA
:100AB00098473046294600F063FC15E002F01EFD21
:100AC000214B002202F0AAFE02F090FF1F4B0340D0
:100AD000002B03DA013B63F0FF030133174A9370E5
:100AE00033780BB900F054F81834BC42B2D11A482C
:100AF000002100F089F80024174B1968174BE140DA
:100B0000185D01F00101013400F0E8F8082CF3D180
:100B10000A4D134C28462146032202F0B7FF28B1A4
:100B200000F036F82B882380AB78A3700120BDE855
:100B3000F84000F0A3B900BFCC88FF1F098FFF1F4A
:100B4000488CFF1F088CFF1F00C02240FF00008060
:100B50004C8CFF1F983B00003C8CFF1FDC88FF1F64
:100B6000388CFF1F10B5094C012100222046FFF7E9
:100B7000EBFE7823237504F1180002210322FFF70E
:100B8000E3FE792384F82C3010BD00BF088CFF1FD2
:100B900037B5194B1A680092009C1D46174B1B78FD
:100BA00023B3032001F0CEFD022808D92B6801935E
:100BB000019B1B1B1E2B1CD800F0ECF9EEE701F08B
:100BC00045FD01460028F1D00D4B00221A700D4B57
:100BD0001A889B78C372012404230472A0F80920A8
:100BE0000380032001F0FCFD204603E04FF0FF30BE
:100BF00000E0002003B030BD448CFF1FF78EFF1FC4
:100C0000408CFF1F098FFF1FF7B5134B1A68009226
:100C1000009E05460C461F46104B1B78A3B10420CE
:100C200001F074FD48B93A680192019A921BA24200
:100C30000DD86CB100F0AEF9EEE7B0F809302B80BA
:100C400001F022FD022004E04FF0FF3001E000E05F
:100C5000204603B0F0BD00BF448CFF1FF78EFF1F7E
:100C60007047FFFF00F14040A0F592237C2B14D980
:100C7000A0F594237C2B12D9A0F596237C2B10D9B8
:100C8000A0F598237C2B06D9A0F59A207D2806484C
:100C900028BF002070470548704705487047054841
:100CA00070470548704700BFBC89FF1F9C89FF1F24
:100CB000E488FF1F1C89FF1F6C89FF1F044B054937
:100CC00000221A600A60044A106010221A607047FD
:100CD00014D0034004D0034000D00340212810B5B5
:100CE00018D80D4A52F8303093F880423CB10122B6
:100CF00011B183F8802010BD83F8002110BD02EBF4
:100D0000C00043681A6811B142F0030201E022F00A
:100D100002021A6010BD00BFA83B0000212806D8BF
:100D2000044B53F8303093F80002C0B270470020F3
:100D3000704700BFA83B0000212810B52BD8164AE9
:100D400002EBC00301295B68144601D004290FD1CE
:100D500054F83020012082F880024FF4A2721A6009
:100D60001A6804290CBF42F0200222F0200211E090
:100D700052F83000002280F8802211B94FF48072BE
:100D800008E0022902D140F2031203E0032908BF60
:100D90004FF481721A6010BDA83B0000212870B585
:100DA0000D463CD8042A3AD8DFE802F00709050BC3
:100DB00003000B2306E00A2304E0082302E00C23CF
:100DC00000E009231E04164B03EBC0035C68216896
:100DD00011F4E06101D1FFF7AFFF124B124AC3F8E3
:100DE0009C21124AC3F8A021114AC3F8A421114A38
:100DF000C3F8A8212046104AC3F8AC21FFF732FF00
:100E000068B172B6226822F470222260C4F38403AF
:100E100042F08072164340F82350266062B670BDDF
:100E2000A83B00000082FF1FA188FF1F7588FF1FDD
:100E30004988FF1F1D88FF1FF187FF1F72B60C4BEB
:100E40000C491A680C4B1B68096862B6490102D547
:100E5000322A88BF0133C2F58C32482102F23F1298
:100E6000B2FBF1F24FF47A7000FB0320704700BF31
:100E700018E000E004ED00E0448CFF1F38B50446A4
:100E8000FFF7DCFF054624B938BD013C0AD005F563
:100E90007A75FFF7D3FF401BB0F57A7FF5D200F0EB
:100EA00079F8F6E738BDFFFF204B4FF4000210B58C
:100EB0001A604FF080721A604FF000721A604FF0A3
:100EC00080621A604FF000621A60194B194A1A4C7E
:100ED000002048F6FF711860596028231360936062
:100EE0001361936113629362136393630922226017
:100EF00004F58054043420606160A360236144F8E9
:100F0000042C04F5FE2420600C4801600C490B60A1
:100F10008B600C4B1A6000F03BFA4FF4C870FFF77F
:100F2000ADFFBDE8104001F089BF00BF08E100E05F
:100F3000048003400C8003400080034008800B4085
:100F40000C800B4000800B4008B5FFF73BFDFFF71E
:100F500057FD00F01FF8FAE702F032B801F0E6BFE3
:100F600002F00EB802F0D0B8084602F0C1B8084648
:100F7000114602F04BB87047044B00221A714FF42F
:100F80007A711A73024A99601A6070474C8CFF1F7D
:100F9000C03C000010B50E4C2378BBB90123237070
:100FA00002F00EF808B1FFF7E6FF00F093FC08B17D
:100FB00000F08AF800F0ECFF08B100F00FF901F042
:100FC00079FA08B100F094F90023237010BD00BF36
:100FD0005C8CFF1F08B50368C9B21B68984708BD41
:100FE00008B50368C9B21B68984708BD08B503680F
:100FF000C9B21B68984708BD08B50368C9B21B6829
:10100000984708BD034800EB5100B0FBF1F000F039
:101010001BBA00BF0044950810B5064800EB51000C
:101020001446B0FBF1F000F00FFA2046BDE8104086
:1010300000F06EBA0044950800F094BA084600F03B
:10104000C5BA084600F014BB0846114600F0DABAEB
:1010500008B5084600F032FB003018BF012008BD7B
:1010600008B5084600F04CFB003018BF012008BD51
:1010700000F030BC00F068BC00F03CBC00F00EBCDE
:1010800000F07ABC00F014BC08B5084600F05EFB26
:10109000012008BD08B5084600F058FB012008BD36
:1010A00010B508461446114600F09AFB204610BDC4
:1010B00038B508460D4602F01DFD04462146284677
:1010C00000F08EFB204638BD7047FFFF044B002226
:1010D0001A714FF47A711A73024A99601A60704754
:1010E000608CFF1FE03C000008B50368C9B21B68B4
:1010F000984708BD08B50368C9B21B68984708BD82
:1011000008B50368C9B21B68984708BD08B50368ED
:10111000C9B21B68984708BD034800EB5100B0FBFB
:10112000F1F000F0D1BC00BF0044950810B50648AE
:1011300000EB51001446B0FBF1F000F0C5FC204676
:10114000BDE8104000F024BD0044950800F04ABD01
:10115000084600F09FBD084600F0EEBD0846114667
:1011600000F0B4BD08B5084600F00EFE003018BF10
:10117000012008BD08B5084600F028FE003018BF61
:10118000012008BD00F004BF00F03CBF00F010BF1C
:1011900000F0E2BE00F04EBF00F0E8BE08B5084621
:1011A00000F032FE012008BD08B5084600F02CFE14
:1011B000012008BD10B508461446114600F06EFE29
:1011C000204610BD38B508460D4602F093FC044693
:1011D0002146284600F062FE204638BD7047FFFFDA
:1011E000044B00221A714FF47A711A73024A996003
:1011F0001A607047708CFF1F403D000008B50368FF
:10120000C9B21B68984708BD08B50368C9B21B6816
:10121000984708BD08B50368C9B21B68984708BD60
:1012200008B50368C9B21B68984708BD034800EBBE
:101230005100B0FBF1F000F0A5BF00BF00A24A04CE
:1012400010B5064800EB51001446B0FBF1F000F079
:1012500099FF2046BDE8104000F0D6BF00A24A0426
:1012600000F0FCBF084601F02DB8084601F06EB84A
:101270000846114601F042B808B5084601F068F882
:10128000003018BF012008BD08B5084601F082F8FB
:10129000003018BF012008BD01F00CB901F044B9BD
:1012A00001F018B901F0EAB801F056B901F0F0B850
:1012B00008B5084601F08CF8012008BD08B50846BD
:1012C00001F086F8012008BD10B508461446114605
:1012D00001F0C8F8204610BD38B508460D4602F0AA
:1012E00009FC04462146284601F0BCF8204638BDDA
:1012F0007047FFFF044B00221A714FF47A711A7382
:10130000024A99601A607047808CFF1FA03D000060
:1013100070B505468AB022B90368C9B21B68984700
:101320002CE0012A08BF0A2221B930228DF825209D
:10133000212413E02124B1FBF2F002FB1011C9B209
:1013400009290AAE94BF303137312644C9B206F8B4
:10135000241C014610B1013CE4B2ECE733B1013C7E
:10136000E4B20AAB23442D2203F8242C2B6801A9F4
:101370005B6828462144C4F1220298470AB070BD38
:101380000029BABF49422D2300230A22FFF7C0BF1C
:1013900010B5204B2048214960221A70E1225A7072
:1013A0001F4B204A1C78204B082C01D1012402E05D
:1013B0000A2C03D119240460132005E00C2C0CBF67
:1013C00015243D2404601220086014601860174B37
:1013D00017491B78174A03B101230B601360164BA2
:1013E000164A1978164B012901D880210BE00429EF
:1013F00001D8842107E0082901D8852103E01029BC
:1014000094BF86218721116019600E4B01221A704A
:1014100010BD00BF0040074008B003400CB00340BF
:10142000C489FF1F08B00B400CB00B40918CFF1F0C
:1014300020B0034020B00B40C589FF1F24B00340FB
:1014400024B00B40908CFF1F234B1A6842F480623B
:101450001A60224A00231370214A1370214A137024
:10146000214A1370214A1370214B1B782BB1152B85
:1014700007D140F213321F4B02E01F4B40F21332F0
:101480001A601E4B1B78012B05D0052B07D14FF49A
:1014900051721B4B02E01B4B4FF451721A601A4BF6
:1014A000C0F344321A70C0F347125A70022104226A
:1014B00000F01F0098729A70D9745A7588221A74B5
:1014C0003C22DA70114B40226FF44A711A700B44BF
:1014D0004FF400521A607047348004401B8DFF1F88
:1014E000998CFF1F248DFF1F1C8DFF1F988CFF1FE1
:1014F000DA8CFF1F18C0044040A00440C689FF1FBB
:101500001CC0044044A0044000A006402DE400E0BC
:10151000134A937800F0030103F0EC030B434107F7
:1015200048BF43F01003937000F00F03042B0C49E5
:1015300003D18B7943F040038B715379C20603F0DA
:10154000EF03074A48BF43F01003537193798106B4
:1015500003F0EF0348BF43F010039371704700BFDF
:1015600000A0064008B5114B1B685B0500D408BD00
:101570000F4B1A7802F0FF0312B1FFF70BFDF7E7EC
:101580000C4A4FF4005111600B4A0C49D37040F2E1
:1015900003120A604A600A4A13700A4A13700A4B1F
:1015A0001B680BB101221A7008BD00BF34800440D3
:1015B000988CFF1F84E100E000A0064040A004409A
:1015C0001B8DFF1F998CFF1F948CFF1F38B504469D
:1015D000094B1B7803F0FF05002BF9D120460121B0
:1015E000FFF7AAFB20462946FFF778FB034B53F889
:1015F0003420034B1A6038BD988CFF1FA83B0000B5
:10160000208DFF1F10B509B140F08000144A1378F7
:101610009842144622D0134A126852051DD503F091
:101620007F03012B04D0052B05D100220E4B01E0D6
:101630000E4B00221A60002900F07F020CBF4423E9
:101640006023012A05D0052A07D143F44073064AD6
:1016500002E0064A43F440731360207010BD00BFDF
:10166000C689FF1F348004401CC0044044A00440CD
:101670000E4A1378984218D00D490968490513D5C8
:101680002BB1152B05D10B4B0021196001E00A4944
:101690000B6028B1152807D140F21331054B02E049
:1016A000054B40F21331196010707047DA8CFF1F40
:1016B0003480044018C0044040A004400D4A38B5AE
:1016C000146814F480624FF0000410D021280A4DF1
:1016D0000AD80A4A012152F830302B60FFF72CFB60
:1016E0002B681C70012038BD2C60204638BD104688
:1016F00038BD00BF34800440948CFF1FA83B00001D
:101700000E4B1B6813F4806316D012280C4B03D1C8
:1017100040F202310B4A04E0142809D10A4A40F28F
:10172000023111605A7B42F001025A730120704766
:101730005A7B02F0FE025A73002070473480044046
:1017400000A006400CA0044014C00440F8B51D4B96
:101750001B685A05064633D51B4B1B680BB101228B
:101760001A701A4B1C780134402C1F4628BF0024E5
:10177000174D2B78A34218D101F032FD40280FDC21
:10178000144A13791B06F3D52B7813490133402BE8
:1017900028BF0023C95CDBB2C9B2D1712B70E7E767
:1017A000FF28E5DDFFF7F6FBE2E70B4BF6B21E552F
:1017B0000A4B01221A70074BE4B2BC223C70DA706B
:1017C000F8BD00BF34800440208DFF1F248DFF1F13
:1017D0001C8DFF1F00A006409A8CFF1F988CFF1FD6
:1017E000274B1B685A052DE9F04707468A4644D522
:1017F000244B1B680BB101221A703D4607EB0A030C
:101800009D4237D2DFF890801F4E98F8004096F83E
:1018100000900134402C28BF00245FFA89F9A145CB
:101820001DD11A4BBC22DA7001F0DAFC40280FDC23
:10183000164A13791B060FD5337815490133402B0F
:1018400028BF0023C95CDBB2C9B2D171337003E099
:10185000FF2801DDFFF79EFB33784B45E4D00C4BAE
:1018600015F8012B1A550B4B0122E4B21A7088F8B7
:101870000040C3E7054BBC22DA70BDE8F08700BF2B
:1018800034800440208DFF1F1C8DFF1F00A00640E8
:101890009A8CFF1F988CFF1F248DFF1F08B5034BE8
:1018A0001B7813B1FFF776FBF9E708BD988CFF1F93
:1018B000064A074B1B781078DBB2C0B283422CBFBC
:1018C0003F3000F1FF30C01A704700BF1C8DFF1F72
:1018D000248DFF1F054B1878054B1B78C0B2DBB277
:1018E000984238BF4030C01A704700BF1B8DFF1FA1
:1018F000998CFF1F10B5104B10491A780B78D2B293
:10190000DBB29A4214D00133402B28BF00230C488D
:10191000DCB2C05C0C700B490968C0B251B19A428C
:1019200038BF4032D31A1A2B04DC00230B7010BDD1
:101930004FF0FF3010BD00BF1B8DFF1F998CFF1FA4
:10194000DB8CFF1F948CFF1F084B1A78084B1B7809
:10195000DBB29A4207D00133402B28BF0023054A4F
:10196000D05CC0B270474FF0FF3070471B8DFF1F37
:10197000998CFF1FDB8CFF1F0C4B1B685B0514D57C
:101980000B4BDA7802F0CB02DA7040225A74DA7824
:1019900042F03402DA70074B1A78074BD2B21A7051
:1019A000064B1B680BB100221A707047348004404C
:1019B00000A00640998CFF1F1B8DFF1F948CFF1FFA
:1019C00030B5374B1A7912F0300F31D072B69A7D9C
:1019D00002F0FF0022B9DA7940225A7462B627E099
:1019E00062B6304A304913780978DBB2C9B214467E
:1019F0002B4AD5795A1C402A28BF00228A42EDB2D0
:101A000002D02A4B9D541346421E12F0FF00EFD124
:101A1000DAB22270264A126852B18B4236BFC1F147
:101A20004001C1EB03035B18272BC4BF01231370D4
:101A30001B4BD978C9B20C0620D51B7918061DD5C9
:101A40001C4B1D4A1D781378EDB2DBB21046AB4239
:101A50000CD0134A0133402B1479184C28BF0023B3
:101A6000E45CE4B2D471127D072AF0D9DBB20370D2
:101A70000B4B1A79120644BF7C22DA704B060ED546
:101A8000074B1A7912F0400F194608D00C4B002270
:101A90001A700C4B1B6803B11A703C23CB7030BD1D
:101AA00000A006401B8DFF1F998CFF1FDB8CFF1FC2
:101AB000948CFF1F248DFF1F1C8DFF1F9A8CFF1F0E
:101AC000988CFF1F208DFF1F234B1A6842F4006281
:101AD0001A60224A00231370214A1370214A13709E
:101AE000214A1370214A1370214B1B78092B05D012
:101AF0001A2B07D140F213321E4B02E01E4B40F26C
:101B000013321A601D4B1B780A2B05D01F2B07D1EF
:101B10004FF451721A4B02E01A4B4FF451721A6093
:101B2000194BC0F344321A70C0F347125A7000F0D8
:101B30001F000422022198729A70D9745A75882263
:101B40001A743C22DA70114B40221A70A3F22B3324
:101B50004FF400421A60704734800440968DFF1F96
:101B60002D8DFF1F9C8DFF1F978DFF1F2C8DFF1F3D
:101B7000C789FF1F04D004400CB00440C889FF1F70
:101B800000D0044010B0044000B006402FE400E054
:101B9000134A937800F0030103F0EC030B43410771
:101BA00048BF43F01003937000F00F03042B0C495F
:101BB00003D18B7943F040038B715379C20603F054
:101BC000EF03074A48BF43F010035371937981062E
:101BD00003F0EF0348BF43F010039371704700BF59
:101BE00000B0064008B51E4B1B681B0500D408BD9D
:101BF0001C4B1B7803F0FF0213B1FFF7CBF9F7E79B
:101C0000194B4FF400411960184BDA70184B1B78D0
:101C1000092B05D01A2B07D140F20312154B02E015
:101C2000154B40F203121A60144B1B7803F07F032C
:101C30000A2B05D01F2B07D140F20312104B02E0F4
:101C4000104B40F203121A600F4A002313700F4A20
:101C500013700F4B1B680BB101221A7008BD00BF37
:101C6000348004402C8DFF1F84E100E000B006406A
:101C7000C789FF1F04D004400CB00440C889FF1F6F
:101C800000D0044010B00440968DFF1F2D8DFF1F23
:101C9000288DFF1F38B50446094B1B7803F0FF055C
:101CA000002BF9D120460121FFF746F820462946AE
:101CB000FFF714F8034B53F83420034B1A6038BD78
:101CC0002C8DFF1FA83B0000988DFF1F10B509B198
:101CD00040F08000144A13789842144622D0134AE8
:101CE000126812051DD503F07F030A2B04D01F2BA9
:101CF00005D100220E4B01E00E4B00221A60002994
:101D000000F07F020CBF442360230A2A05D01F2A5B
:101D100007D143F44073064A02E0064A43F4407395
:101D20001360207010BD00BFC889FF1F34800440BD
:101D300000D0044010B004400F4A137898421AD0E3
:101D40000E490968090515D5092B04D01A2B05D1B0
:101D500000210B4B01E00B4B00211960092805D035
:101D60001A2807D140F21331054B02E0054B40F22F
:101D70001331196010707047C789FF1F3480044009
:101D800004D004400CB004400D4A38B5146814F473
:101D900000624FF0000410D021280A4D0AD80A4AE8
:101DA000012152F830302B60FEF7C6FF2B681C7003
:101DB000012038BD2C60204638BD104638BD00BF1C
:101DC00034800440288DFF1FA83B00000B4B1B688C
:101DD00013F4006310D01728094B09D1094A40F2C7
:101DE000023111605A7B42F001025A7301207047A0
:101DF0005A7B02F0FE025A73002070473480044080
:101E000000B0064008B00440F8B51D4B1B681A0529
:101E1000064633D51B4B1B680BB101221A701A4BB7
:101E20001C780134282C1F4628BF0024174D2B781E
:101E3000A34218D101F0D4F940280FDC144A1379D9
:101E40001B06F3D52B7813490133282B28BF002319
:101E5000C95CDBB2C9B2D1712B70E7E7FF28E5DDC1
:101E6000FFF798F8E2E70B4BF6B21E550A4B01223A
:101E70001A70074BE4B2BC223C70DA70F8BD00BFA8
:101E800034800440988DFF1F9C8DFF1F978DFF1F8E
:101E900000B006402E8DFF1F2C8DFF1F274B1B68A7
:101EA0001A052DE9F04707468A4644D5244B1B689E
:101EB0000BB101221A703D4607EB0A039D4237D24F
:101EC000DFF890801F4E98F8004096F8009001349B
:101ED000282C28BF00245FFA89F9A1451DD11A4B8F
:101EE000BC22DA7001F07CF940280FDC164A137925
:101EF0001B060FD5337815490133282B28BF002343
:101F0000C95CDBB2C9B2D171337003E0FF2801DDD7
:101F1000FFF740F833784B45E4D00C4B15F8012B14
:101F20001A550B4B0122E4B21A7088F80040C3E73F
:101F3000054BBC22DA70BDE8F08700BF3480044056
:101F4000988DFF1F978DFF1F00B006402E8DFF1F3D
:101F50002C8DFF1F9C8DFF1F08B5034B1B7813B101
:101F6000FFF718F8F9E708BD2C8DFF1F064A074B4D
:101F70001B781078DBB2C0B283422CBF273000F14F
:101F8000FF30C01A704700BF978DFF1F9C8DFF1F49
:101F9000054B1878054B1B78C0B2DBB2984238BFAE
:101FA0004030C01A704700BF968DFF1F2D8DFF1F58
:101FB00010B5104B10491A780B78D2B2DBB29A42A6
:101FC00014D00133402B28BF00230C48DCB2C05C86
:101FD0000C700B490968C0B251B19A4238BF403207
:101FE000D31A1A2B04DC00230B7010BD4FF0FF3006
:101FF00010BD00BF968DFF1F2D8DFF1F568DFF1F3B
:10200000288DFF1F084B1A78084B1B78DBB29A42C9
:1020100007D00133402B28BF0023054AD05CC0B253
:1020200070474FF0FF307047968DFF1F2D8DFF1FBB
:10203000568DFF1F0C4B1B681B0514D50B4BDA7814
:1020400002F0CB02DA7040225A74DA7842F034029D
:10205000DA70074B1A78074BD2B21A70064B1B681E
:102060000BB100221A7070473480044000B0064063
:102070002D8DFF1F968DFF1F288DFF1F30B5374B0D
:102080001A7912F0300F31D072B69A7D02F0FF004B
:1020900022B9DA7940225A7462B627E062B6304A31
:1020A000304913780978DBB2C9B214462B4AD57986
:1020B0005A1C402A28BF00228A42EDB202D02A4B85
:1020C0009D541346421E12F0FF00EFD1DAB2227087
:1020D000264A126852B18B4236BFC1F14001C1EBB2
:1020E00003035B18272BC4BF012313701B4BD97844
:1020F000C9B20C0620D51B7918061DD51C4B1D4AEC
:102100001D781378EDB2DBB21046AB420CD0134A07
:102110000133282B1479184C28BF0023E45CE4B267
:10212000D471127D072AF0D9DBB203700B4B1A79F8
:10213000120644BF7C22DA704B060ED5074B1A7983
:1021400012F0400F194608D00C4B00221A700C4BAD
:102150001B6803B11A703C23CB7030BD00B0064041
:10216000968DFF1F2D8DFF1F568DFF1F288DFF1F82
:102170009C8DFF1F978DFF1F2E8DFF1F2C8DFF1F26
:10218000988DFF1F174B1A6842F480521A60164A46
:1021900000231370154A1370154A1370154A1370F3
:1021A000154A1370154A40F2133111604FF4517102
:1021B0005160134AC0F344311170C0F3471100F06D
:1021C0001F0051709072937013742C23D3700D4BB9
:1021D00040226FF44B711A700B444FF400321A60B6
:1021E000704700BF348004400E8EFF1FA58DFF1F77
:1021F000148EFF1F0F8EFF1FA48DFF1F08C0044009
:1022000000C0064031E400E0134A937800F0030177
:1022100003F0EC030B43410748BF43F010039370F6
:1022200000F00F03042B0C4903D18B7943F04003DA
:102230008B715379C20603F0EF03074A48BF43F09E
:10224000100353719379810603F0EF0348BF43F005
:1022500010039371704700BF00C0064008B5114BD2
:102260001B68DB0400D408BD0F4B1A7802F0FF0393
:1022700012B1FEF78FFEF7E70C4A4FF40031116000
:102280000B4A0C49D37040F203120A604A600A4AB2
:1022900013700A4A13700A4B1B680BB101221A70A3
:1022A00008BD00BF34800440A48DFF1F84E100E01E
:1022B00000C0064008C004400E8EFF1FA58DFF1F02
:1022C000A08DFF1F38B50446094B1B7803F0FF05AE
:1022D000002BF9D120460121FEF72EFD204629468C
:1022E000FEF7FCFC034B53F83420034B1A6038BD57
:1022F000A48DFF1FA83B0000108EFF1F10B509B171
:1023000040F080000E4A1378984217D00D4C246894
:10231000E40412D503F07F03082B02D10A4B0024FA
:102320001C60002900F07F030CBF44216021082BB2
:1023300003D1054B41F440711960107010BD00BF0E
:10234000C989FF1F348004400CC004407047FFFF60
:102350000D4A38B5146814F480524FF0000410D0C0
:1023600021280A4D0AD80A4A012152F830302B6040
:10237000FEF7E2FC2B681C70012038BD2C60204663
:1023800038BD104638BD00BF34800440A08DFF1F0B
:10239000A83B00000B4B1B6813F4805310D00E2891
:1023A000094B09D1094A40F2023111605A7B42F0CF
:1023B00001025A73012070475A7B02F0FE025A73E1
:1023C000002070473480044000C0064004C0044030
:1023D000F8B51D4B1B68DA04064633D51B4B1B684A
:1023E0000BB101221A701A4B1C780134282C1F469D
:1023F00028BF0024174D2B78A34218D100F0F0FE1F
:1024000040280FDC144A13791B06F3D52B781349A7
:102410000133282B28BF0023C95CDBB2C9B2D171BC
:102420002B70E7E7FF28E5DDFEF7B4FDE2E70B4B95
:10243000F6B21E550A4B01221A70074BE4B2AC22C9
:102440003C70DA70F8BD00BF34800440108EFF1F6E
:10245000148EFF1F0F8EFF1F00C00640A68DFF1FAA
:10246000A48DFF1F38B504464518AC4204D014F8BB
:10247000010BFFF7ADFFF8E738BDFFFF08B5034BD1
:102480001B7813B1FEF786FDF9E708BDA48DFF1F89
:10249000064A074B1B781078DBB2C0B283422CBFD0
:1024A000273000F1FF30C01A704700BF0F8EFF1FAA
:1024B000148EFF1F054B1878054B1B78C0B2DBB29A
:1024C000984238BF4030C01A704700BF0E8EFF1FC1
:1024D000A58DFF1F10B5104B10491A780B78D2B29A
:1024E000DBB29A4214D00133402B28BF00230C48A2
:1024F000DCB2C05C0C700B490968C0B251B19A42A1
:1025000038BF4032D31A1A2B04DC00230B7010BDE5
:102510004FF0FF3010BD00BF0E8EFF1FA58DFF1FB7
:10252000CE8DFF1FA08DFF1F084B1A78084B1B781C
:10253000DBB29A4207D00133402B28BF0023054A63
:10254000D05CC0B270474FF0FF3070470E8EFF1F57
:10255000A58DFF1FCE8DFF1F054B1A78054BD2B2FC
:102560001A70054B1B680BB100221A70704700BF30
:10257000A58DFF1F0E8EFF1FA08DFF1F10B5294BCD
:102580001A79920620D5284AD87913782749013339
:10259000402B097828BF00238B42C0B203D02449C6
:1025A000C854D9B21170234A116869B1224A12780D
:1025B000D2B2934236BFC2F14002C2EB03039B1872
:1025C000272BC4BF01230B70164AD178C9B20C0661
:1025D00016D51379180613D5184B17481C780378AD
:1025E000DBB29C4202D16C23D37009E00133282B6B
:1025F00028BF0023124CE45CDBB2E4B2D471037058
:102600004B060ED5074B1A7912F0400F194608D029
:102610000C4B00221A700C4B1B6803B11A702C2350
:10262000CB7010BD00C006400E8EFF1FA58DFF1F92
:10263000CE8DFF1FA08DFF1F0F8EFF1F148EFF1F5B
:10264000A68DFF1FA48DFF1F108EFF1F72B60C4AB0
:102650001168B1FA81F30D2B02D962B600207047E0
:102660004FF00040D84021EA0001116062B60549F0
:1026700048225343C8180022CA504260704700BF26
:10268000CC89FF1F0084FF1F0C4B4822C31AB3FBE9
:10269000F2F30D2B11D80A4A127822B1094A1278A6
:1026A0000AB100F061B872B6074A4FF0004121FA52
:1026B00003F311681943116062B670470084FF1F6D
:1026C000EE8EFF1FF78EFF1FCC89FF1FF0B50C4B5E
:1026D0000C4C1A7842F0020504EBC50682F00102A8
:1026E000706009481A700678002E0CBF8827C8272A
:1026F00086F0010647EA0141067044F83510F0BD46
:10270000808EFF1F0080FF1FF88EFF1F431E032BCC
:1027100010B510D872B6094A52F8230048B1416882
:1027200042F82310064A018832F81340611A22F851
:10273000131062B610BD002010BD00BF708EFF1FC9
:102740000C8FFF1F013803280AD872B6054B53F8C7
:102750002030002013B101305B68FBE762B67047A0
:1027600000207047C48EFF1F10B572B60123174AB0
:102770001A4412F8012C12071CD59900144A52F879
:1027800031402CB902EB431308305860114B09E07B
:1027900041F0010152F8314064B902EBC103083045
:1027A00058600D4B42F831300C4B1A78013A1A70D0
:1027B00062B610BD0133052BD9D162B6074B00229A
:1027C0001A70BDE81040FFF75FBF00BFF83D000082
:1027D0000080FF1F88004000C8004000EE8EFF1FF1
:1027E000431E032B30B532D8194A400140F0100087
:1027F000104472B6174CE25C032A09D8DFE802F0F5
:10280000160218050830022213E00830042210E0F6
:102810001148124A50F8234014B940F8231002E03E
:1028200052F82300416042F823100FE0032200E039
:102830000522E25410F0080F01F108030A884360F2
:102840000CBF8823C82343EA0243036062B630BD4D
:102850000080FF1F2C8EFF1FC48EFF1FD48EFF1F12
:102860002DE9F84FA74F3C78E4B214F0040F3D4631
:1028700019D0A54B1B78A3B1A44A117801F0FF032E
:1028800021B1013BDBB2137003B900BEA04A11783D
:1028900001F0FF0329B1013BDBB213700BB900F06B
:1028A00055FC04233B7004F0080303F0FF02002BE7
:1028B00000F05C82974B984C1A78D2B215094FEA17
:1028C000920840F0D98154F8382004EBC803C2F3D1
:1028D0008302013A5B680C2A00F2CB81DFE812F038
:1028E00085018501C901C901C901C901C901C90120
:1028F000A501C901C901C9010D00884D1A685B68AD
:1029000087486B60874B44F8383001232A60DFF832
:102910004082037092B240F2816000218242C8F886
:1029200000102161A16117D8B2F5D06F80F0168137
:10293000B2F5817F00F0C78006D8802A00F0B2800F
:10294000822A00F0B38021E140F202339A4200F083
:10295000C980B2F5A06F14E0B2F5106F14D008D89A
:10296000B2F5086F40F01281674A6F4C12782270FE
:1029700014E140F621139A4200F0348140F62123FD
:102980009A4200F0078101E15F4B634EAA781A700A
:1029900006F18009336A1B0603D5706A0838FFF711
:1029A00073FE08364E45F5D10026B146DFF8A4A1E6
:1029B00056F80A0028B1D0F804B0FFF765FE584673
:1029C000F8E74AF80600594BDFF88CA1F05056F8AA
:1029D0000A0028B1D0F804B0FFF756FE5846F8E7D1
:1029E000534B4AF80600F050524B23F81900524B53
:1029F00019F80320023A032A08D8DFE802F002049B
:102A00000204002200E0012203F8092009F1010973
:102A1000B9F1040F06F10406C8D1484B00221A7020
:102A200001269A46464A474B3244334412F8012C59
:102A30009B0012F0080F1A704FEA860925D0FFF7A5
:102A400005FE38B104EB4613083058603E4B44F89D
:102A5000393006E09AF8003044F8390001338AF83A
:102A60000030FFF7F3FD49F0010338B104EBC30276
:102A7000083050602B4A44F8332006E044F8330015
:102A80009AF8003001338AF8003049F0020201362A
:102A900049F003090023052E44F8323044F8393058
:102AA000C0D178E0204C2170617076E0AA88042AB9
:102AB0006CD81D4C217061709100244A525C9607BD
:102AC0006BD5237069E0AA8802F07F02042A5DDCDE
:102AD0006B88002B5AD191001C4A0A44117821F0CE
:102AE00002010DE0AA8802F07F02042A4EDC6B8806
:102AF000002B4BD19100154A0A44117841F0020194
:102B0000117048E080200740F78EFF1F818EFF1F65
:102B1000088FFF1F902007400080FF1FE48EFF1FDB
:102B2000F88EFF1FC8004000EF8EFF1F1C8EFF1F96
:102B3000D48EFF1F0C8FFF1F2C8EFF1FEE8EFF1FEA
:102B4000F83D000030C8011088004000C020074058
:102B5000188EFF1F708EFF1FC48EFF1F6A88A98802
:102B60009E4B53F8084CA3F10C007CB133F80C6C6D
:102B7000964209D133F80A6C8E4205D1120A032A13
:102B80000CBF2378038909E00C33EAE7944B0F224A
:102B90001A7027E000231C4600E00223EE88B342AF
:102BA00038BF1E46402E34BF3546402520462946B4
:102BB000FFF78CFD761B2C4403D1402D12D13546F6
:102BC00003E0402E34BF3546402520462946FFF716
:102BD0007DFD761B2C4401D1402D03D1814AC8F8DC
:102BE000004016800122804B42E0804A80481168F4
:102BF000814216D15268B2F5802F12D11A78A92AD3
:102C00000FD15A78452A0CD19A78C22A09D1DB789B
:102C10006B2B06D1774B0020052201461A70FFF777
:102C200055FD754B44F8383023E0744E3568B5B126
:102C3000DFF8B081B8F80090B9F1400F34BF4C46CE
:102C4000402428462146FFF741FDC4EB09039BB20F
:102C5000A8F800300BB9402C00D12B193360634B1E
:102C60001A88B2F5A06F04D100225A709A78644B8A
:102C70001A7001225C4B6CE004EBC806013D7368DE
:102C800002F00802A3F10800EDB202F0FF01002AF1
:102C900036D0FFF7F9FC5B485B4B50F82520EAB1D2
:102CA000516840F8251002F108017160595D03294F
:102CB0000BD8DFE801F002040608032104E002213A
:102CC00002E0052100E00421595516F0080F128892
:102CD0000CBF8823C82343EA024342E05A5D032A1B
:102CE00007D8DFE802F040400204002206E001229B
:102CF00004E016F0080F0CBF022203225A5532E0FE
:102D000054F83820120C23F8082C22B3DFF828E1FD
:102D100023F8061C43F8041C5EF825303B4913B920
:102D20004EF8250002E051F825305860384B41F844
:102D3000250033F815100A4423F81520FFF786FC08
:102D400010B10830706006E0324B44F838001A7851
:102D500001321A7007E0284B2F4A16F0080F08BFFF
:102D6000134644F8383008233B707BE5E0071FD555
:102D70001D492948294C02230B70294B1A70294BF5
:102D8000186098602848D8601A619A615C60144B9A
:102D90000D2018702548FF2303702B700274244AFD
:102DA0001370244B9F221A7001230B70BDE8F88F1B
:102DB000210604D50A4B0D221A7080232B70A2071E
:102DC00005D51A4B1A78D2B21A7002232B70E3067B
:102DD00044BF10232B70BDE8F88F00BF083E0000F1
:102DE000C0200740EC8EFF1F94200740E48EFF1F99
:102DF00021090003818EFF1FC8004000188EFF1FAD
:102E000098200740C48EFF1F2C8EFF1F1C8EFF1FB3
:102E10000C8FFF1FEE8EFF1F88004000308EFF1FBB
:102E2000808EFF1F0080FF1F848EFF1F88200740B9
:102E30008C20074084200740708EFF1F08B500F0EB
:102E40003DF800221A4B0021D15098180832882AE8
:102E50004160F7D1174A106840F48020106002F5F5
:102E600028326832C3F307201070C3F307401B0EEB
:102E700010751376FF2302F81C3C02F8143C02F88C
:102E80008C3C012302F8083C82F8641002F8183CDC
:102E9000094B70226FF450711A700B444FF400729A
:102EA0001A6003F1C04303F5C82310221A7008BD4D
:102EB0000080FF1F3480044049E400E01FB572B673
:102EC000154B70221A70154A412111700F2102F81A
:102ED000011C80221A701A781206FCD5104B186853
:102EE00062B6104B984298BF0A2301AC98BF584372
:102EF00021460A2200F092F90023E15C0A4A29B136
:102F000002EB430001330A2B4180F6D101335B0011
:102F1000137004B010BD00BF000002400700024063
:102F2000080002407F9698003E8BFF1F38B5124B79
:102F30001B78EBB1114C23681BB90220FFF7E6FBAD
:102F4000206020680D4D98B14388C218147A5CB196
:102F500002880133934204D3FFF796FB00232B60D2
:102F600000E04380204638BDFFF78EFB2C60DEE793
:102F70004FF0FF3038BD00BFF78EFF1F048FFF1FDB
:102F800010B50D4B1B788BB10C4C23681BB902207C
:102F9000FFF7BCFB2060206840B1438803441C7AE3
:102FA0003CB9FFF771FB054B1C60EAE74FF0FF30BF
:102FB00010BD204610BD00BFF78EFF1F048FFF1FFE
:102FC00038B5104D2B6823B1286800240288438847
:102FD0000FE00D4B1B781BB10220FFF797FB286019
:102FE0002C68002CF0D10BE0C1182144097A19B1EA
:102FF0000134E1189142F7DB14B9FFF745FB2C606F
:10300000204638BD048FFF1FF78EFF1F2DE9F843C0
:10301000324D012307460C462B70002C5AD0304EFF
:103020003368B1465BBB43F601482E4B1B7803F077
:10303000FF020BB92A7018E00120FFF783FB052877
:1030400004D9B8F10108284A09D10AE001232B70FC
:10305000FFF7FCFAC9F800000028F2D00FE013785F
:103060003BB10123137000232B704FF0FF30BDE8FC
:10307000F8832B70FDF78EFF01232B70D5E73168A5
:10308000194A488800231370C0F14002944238BFA7
:10309000224600F1080C10448C444880A41A934244
:1030A00004D0F85C0CF803000133F8E71F444B88A8
:1030B0003F2B0E4B02D805221A70AEE740220A8041
:1030C0004FF00008012083F80080FFF789FBC6F865
:1030D0000080A2E72C702046BDE8F883F98EFF1F20
:1030E000FC8EFF1FF78EFF1F008FFF1F088FFF1F33
:1030F00007B502AB012103F8010D1846FFF786FF63
:1031000003B05DF804FBFFFF10B50D4B1B78B3B1A6
:103110000C4B19681C4691B14B8883B10A4A0020B8
:1031200010703F2B04DCCA18002010720133F8E73E
:1031300040230B800120FFF753FB0023236010BDC9
:10314000F78EFF1FFC8EFF1F088FFF1F10B50B4B64
:103150001B788BB90A4A11684B8814463F2B04DC54
:10316000CA18002010720133F8E740230B800120B9
:10317000FFF736FB0023236010BD00BFF98EFF1F51
:10318000FC8EFF1F024B1A6801321A60704700BFA5
:10319000448CFF1F08B50B4C2368580301D5FFF77B
:1031A0005FFB2368590501D5FEF70AFC23681A0561
:1031B00001D5FEF763FF2368DB04ECD5FFF7DEF9EA
:1031C000E9E700BF3480044008B5FFF7E3FFFFFFE5
:1031D000014B10221A807047002005407047FFFF06
:1031E000EFF313839BB9EFF3108098B9EFF30583E6
:1031F00023B10F2B04D9084A985C01E04FF480708A
:10320000EFF311833BB1834238BF184670474FF04C
:10321000FF30704718467047F0E300E010B5002318
:10322000B0FBF2F402FB1400092894BF30303730B1
:10323000C0B2C85420460CB10133F1E7CA1854702B
:1032400022469A4206DA885CCC5C8C54C85401321F
:10325000013BF6E7084610BD81F0004102E000BFE7
:1032600083F0004330B54FEA41044FEA430594EA46
:10327000050F08BF90EA020F1FBF54EA000C55EA81
:10328000020C7FEA645C7FEA655C00F0E2804FEA52
:103290005454D4EB5555B8BF6D420CDD2C4480EA34
:1032A000020281EA030382EA000083EA010180EA64
:1032B000020281EA0303362D88BF30BD11F0004FB2
:1032C0004FEA01314FF4801C4CEA113102D04042E8
:1032D00061EB410113F0004F4FEA03334CEA133323
:1032E00002D0524263EB430394EA050F00F0A7803B
:1032F000A4F10104D5F1200E0DDB02FA0EFC22FA36
:1033000005F2801841F1000103FA0EF2801843FA29
:1033100005F359410EE0A5F120050EF1200E012A1A
:1033200003FA0EFC28BF4CF0020C43FA05F3C01858
:1033300051EBE37101F0004507D54FF0000EDCF1D1
:10334000000C7EEB00006EEB0101B1F5801F1BD37A
:10335000B1F5001F0CD349085FEA30004FEA3C0C7E
:1033600004F101044FEA445212F5800F80F09A8074
:10337000BCF1004F08BF5FEA500C50F1000041EB78
:10338000045141EA050130BD5FEA4C0C404141EB7C
:10339000010111F4801FA4F10104E9D191F0000FA3
:1033A00004BF01460020B1FA81F308BF2033A3F126
:1033B0000B03B3F120020CDA0C3208DD02F1140C1D
:1033C000C2F10C0201FA0CF021FA02F10CE002F158
:1033D0001402D8BFC2F1200C01FA02F120FA0CFC51
:1033E000DCBF41EA0C019040E41AA2BF01EB04519A
:1033F000294330BD6FEA04041F3C1CDA0C340EDC98
:1034000004F11404C4F1200220FA04F001FA02F3DA
:1034100040EA030021FA04F345EA030130BDC4F198
:103420000C04C4F1200220FA02F001FA04F340EA8D
:103430000300294630BD21FA04F0294630BD94F03E
:10344000000F83F4801306BF81F480110134013D25
:103450004EE77FEA645C18BF7FEA655C29D094EA96
:10346000050F08BF90EA020F05D054EA000C04BF14
:103470001946104630BD91EA030F1EBF00210020FF
:1034800030BD5FEA545C05D14000494128BF41F09E
:10349000004130BD14F580043CBF01F5801130BD02
:1034A00001F0004545F0FE4141F470014FF000008D
:1034B00030BD7FEA645C1ABF194610467FEA655C3E
:1034C0001CBF0B46024650EA013406BF52EA0335E0
:1034D00091EA030F41F4002130BD00BF90F0000FCE
:1034E00004BF0021704730B54FF4806404F132040A
:1034F0004FF000054FF0000150E700BF90F0000FC3
:1035000004BF0021704730B54FF4806404F13204E9
:1035100010F0004548BF40424FF000013EE700BFB9
:1035200042004FEAE2014FEA31014FEA02701FBF49
:1035300012F07F4393F07F4F81F06051704792F01B
:10354000000F14BF93F07F4F704730B54FF4607495
:1035500001F0004521F0004120E700BF50EA0102E0
:1035600008BF704730B54FF000050AE050EA01028D
:1035700008BF704730B511F0004502D5404261EBFD
:1035800041014FF4806404F132045FEA915C3FF43E
:10359000DCAE4FF003025FEADC0C18BF03325FEAD7
:1035A000DC0C18BF033202EBDC02C2F1200300FA8C
:1035B00003FC20FA02F001FA03FE40EA0E0021FAB1
:1035C00002F11444C1E600BF70B54FF0FF0C4CF49B
:1035D000E06C1CEA11541DBF1CEA135594EA0C0F51
:1035E00095EA0C0F00F0DEF82C4481EA030621EA8C
:1035F0004C5123EA4C5350EA013518BF52EA0335C7
:1036000041F4801143F4801338D0A0FB02CE4FF078
:103610000005E1FB02E506F00042E0FB03E54FF0A8
:103620000006E1FB03569CF0000F18BF4EF0010EA0
:10363000A4F1FF04B6F5007F64F5407404D25FEA9C
:103640004E0E6D4146EB060642EAC62141EA55514F
:103650004FEAC52040EA5E504FEACE2EB4F1FD0C91
:1036600088BFBCF5E06F1ED8BEF1004F08BF5FEA0F
:10367000500E50F1000041EB045170BD06F00046C1
:1036800046EA010140EA020081EA0301B4EB5C046E
:10369000C2BFD4EB0C0541EA045170BD41F4801166
:1036A0004FF0000E013C00F3AB8014F1360FDEBF8B
:1036B000002001F0004170BDC4F10004203C35DA67
:1036C0000C341BDC04F11404C4F1200500FA05F3EA
:1036D00020FA04F001FA05F240EA020001F000428B
:1036E00021F0004110EBD37021FA04F642EB060101
:1036F0005EEA430E08BF20EAD37070BDC4F10C042B
:10370000C4F1200500FA04F320FA05F001FA04F2EE
:1037100040EA020001F0004110EBD37041F10001DA
:103720005EEA430E08BF20EAD37070BDC4F12005E5
:1037300000FA05F24EEA020E20FA04F301FA05F24D
:1037400043EA020321FA04F001F0004121FA04F2F5
:1037500020EA020000EBD3705EEA430E08BF20EAC5
:10376000D37070BD94F0000F0FD101F000464000FF
:1037700041EB010111F4801F08BF013CF7D041EA81
:10378000060195F0000F18BF704703F00046520085
:1037900043EB030313F4801F08BF013DF7D043EA56
:1037A0000603704794EA0C0F0CEA135518BF95EA0C
:1037B0000C0F0CD050EA410618BF52EA4306D1D193
:1037C00081EA030101F000414FF0000070BD50EAB2
:1037D000410606BF1046194652EA430619D094EA3C
:1037E0000C0F02D150EA013613D195EA0C0F05D126
:1037F00052EA03361CBF104619460AD181EA03017A
:1038000001F0004141F0FE4141F470014FF0000031
:1038100070BD41F0FE4141F4780170BD70B54FF0CC
:10382000FF0C4CF4E06C1CEA11541DBF1CEA13554C
:1038300094EA0C0F95EA0C0F00F0A7F8A4EB05042E
:1038400081EA030E52EA03354FEA013100F0888025
:103850004FEA03334FF0805545EA131343EA1263EE
:103860004FEA022245EA111545EA10654FEA0026A3
:103870000EF000419D4208BF964244F1FD0404F55C
:10388000407402D25B084FEA3202B61A65EB0305B8
:103890005B084FEA32024FF480104FF4002CB6EB75
:1038A000020E75EB030E22BFB61A754640EA0C00F5
:1038B0005B084FEA3202B6EB020E75EB030E22BF35
:1038C000B61A754640EA5C005B084FEA3202B6EB76
:1038D000020E75EB030E22BFB61A754640EA9C0035
:1038E0005B084FEA3202B6EB020E75EB030E22BF05
:1038F000B61A754640EADC0055EA060E18D04FEAC3
:10390000051545EA16754FEA06164FEAC30343EA62
:1039100052734FEAC2025FEA1C1CC0D111F4801F2F
:103920000BD141EA00014FF000004FF0004CB6E728
:1039300011F4801F04BF01430020B4F1FD0C88BFC7
:10394000BCF5E06F3FF6AFAEB5EB030C04BFB6EBD2
:10395000020C5FEA500C50F1000041EB045170BDC5
:103960000EF0004E4EEA113114EB5C04C2BFD4EBF2
:103970000C0541EA045170BD41F480114FF0000E76
:10398000013C90E645EA060E8DE60CEA135594EAF2
:103990000C0F08BF95EA0C0F3FF43BAF94EA0C0FF5
:1039A0000AD150EA01347FF434AF95EA0C0F7FF46A
:1039B00025AF104619462CE795EA0C0F06D152EABE
:1039C00003353FF4FDAE1046194622E750EA4106A2
:1039D00018BF52EA43067FF4C5AE50EA41047FF4B3
:1039E0000DAF52EA43057FF4EBAE12E74FEA410216
:1039F00012F5001215D211D56FF47873B3EB625241
:103A000012D94FEAC12343F0004343EA505311F067
:103A1000004F23FA02F018BF404270474FF00000F9
:103A2000704750EA013005D111F0004008BF6FF037
:103A3000004070474FF00000704700BF70B50F4E58
:103A40000F4D761BB61007D0043D0024013455F805
:103A5000043F9847A642F9D10A4E0B4D761B00F061
:103A60000FFAB61008D0043D0024013455F8043F85
:103A70009847A642F9D170BD70BD00BF8C3E0000D2
:103A80008C3E0000AC3E00008C3E0000032A70B467
:103A900028D940EA01039B0713D005780C78A5428A
:103AA00024D1013A002305E010F8015F11F8014F1D
:103AB000A5421BD1934203F10103F5D1002070BC54
:103AC00070470C46034625681E68AE4221461846DC
:103AD00004F1040403F1040304D1043A032A184650
:103AE0002146F0D8002AD8D11046E8E7281B70BC40
:103AF000704700BF20F0030110F00300C0F1000088
:103B000051F8043B00F1040C4FEACC0C6FF00002BA
:103B10001CBF22FA0CF213434FF0010C4CEA0C2CA0
:103B20004CEA0C4CA3EB0C0222EA030212EACC1280
:103B300004BF51F8043B0430F4D013F0FF0F1FBF53
:103B4000013013F47F4F013013F47F0F18BF0130A1
:103B5000704700BF024B13B10248FCF783BC7047AB
:103B600000000000693B000038B5094D094C641B9A
:103B7000A41018BF05EB840505D0013C55F8043DA1
:103B80009847002CF9D1BDE8384000F08FB900BF4C
:103B90000000000000000000456E636F646572560F
:103BA000616C3A2000FFFFFF4008FE4340A0044044
:103BB0004408FE4344A004400018FE4300C00440F3
:103BC0003000FE43309004403400FE433490044003
:103BD0001C18FE431CC004401018FE4310C00440D3
:103BE0000818FE4308C004400C18FE430CC00440F3
:103BF0000C10FE430CB004401010FE4310B0044003
:103C00001810FE4318B004401C10FE431CB00440C2
:103C10001410FE4314B004400418FE4304C00440D2
:103C20000010FE4300B004400008FE4300A0044022
:103C30000408FE4304A004400C08FE430CA004400A
:103C40000808FE4308A004401418FE4314C00440B2
:103C50001818FE4318C004400410FE4304B004408A
:103C60000810FE4308B004401400FE4314900440C2
:103C70004C08FE434CA004400420FE4304D0044002
:103C80002410FE4324B004402010FE4320B0044022
:103C90002810FE4328B004402C10FE432CB00440F2
:103CA0000020FE4300D004404808FE4348A00440E2
:103CB0001000FE43109004400000000000000000CF
:103CC000690F00006F0F0000590F00005D0F00002A
:103CD000610F0000650F0000000000000000000000
:103CE00089100000A1100000711000007910000080
:103CF000751000007D100000051000001910000074
:103D0000391000003D100000431000004910000071
:103D100051100000611000008110000085100000AB
:103D2000D50F0000E10F0000ED0F0000F90F0000BB
:103D3000B11000009510000000000000000000001D
:103D40009D110000B5110000851100008D110000CB
:103D50008911000091110000191100002D110000BF
:103D60004D11000051110000571100005D110000BD
:103D700065110000751100009511000099110000F7
:103D8000E9100000F5100000011100000D11000005
:103D9000C5110000A9110000000000000000000093
:103DA000B1120000C912000099120000A112000017
:103DB0009D120000A51200002D120000411200000B
:103DC00061120000651200006B1200007112000009
:103DD0007912000089120000A9120000AD12000043
:103DE000FD11000009120000151200002112000050
:103DF000D9120000BD1200001519151900010000AC
:103E0000D089FF1F1200000000020000FA89FF1F86
:103E10004900000000220000438AFF1F210000002B
:103E2000002100000C8AFF1F090000000022010091
:103E3000648AFF1FB5000000002101002C8AFF1FCB
:103E400009000000000300003A8BFF1F0000000083
:103E500001030904E289FF1F0000000002030904B6
:103E60001A8BFF1F00000000030309043E8BFF1F95
:103E70000000000000000000000000000000000042
:103E8000F8B500BFF8BC08BC9E467047553B000023
:103E90003504000069040000650B0000790F000084
:0C3EA000CD100000E1110000F512000040
:043EAC00F8B500BFA6
:103EB000084B10B51C681C6054B194FAA4F2B2FA15
:103EC00082F2054B53F822309847631E1C40F4D110
:103ED00010BD00BFA0D00440BC89FF1F084B10B527
:103EE0001C681C6054B194FAA4F2B2FA82F2054B39
:103EF00053F822309847631E1C40F4D110BD00BF18
:103F0000A0C004409C89FF1F084B10B51C681C60B2
:103F100054B194FAA4F2B2FA82F2054B53F822306B
:103F20009847631E1C40F4D110BD00BFA0B00440F0
:103F30006C89FF1F084B10B51C681C6054B194FAC3
:103F4000A4F2B2FA82F2054B53F822309847631E6E
:103F50001C40F4D110BD00BFA0A004401C89FF1F6D
:103F6000084B10B51C681C6054B194FAA4F2B2FA64
:103F700082F2054B53F822309847631E1C40F4D15F
:103F800010BD00BFA0900440E488FF1F040105029B
:103F900006030704080509060A070B080D0E0F1093
:103FA00011121314610C0000610C0000610C000080
:103FB000610C0000610C0000610C0000610C00004D
:103FC000610C0000610C0000610C0000610C00003D
:103FD000610C0000610C0000610C0000610C00002D
:103FE000610C0000610C0000610C0000610C00001D
:103FF000610C0000610C0000610C0000610C00000D
:10400000610C0000610C0000610C0000610C0000FC
:10401000610C0000610C0000610C0000610C0000EC
:10402000610C0000610C0000610C0000610C0000DC
:10403000610C0000610C0000610C0000610C0000CC
:10404000610C0000610C0000610C0000610C0000BC
:10405000610C0000610C0000610C0000610C0000AC
:10406000610C0000610C0000610C0000610C00009C
:10407000610C0000610C0000610C0000610C00008C
:10408000610C00000A0401090A080000FFFFFFFF9D
:104090001201100100000040C016D104000201020C
:1040A000030118035400650065006E007300790079
:1040B0006400750069006E006F000902490002018A
:1040C00000C03209040000020300000009211101B0
:1040D00000012221000705810340000107050203BA
:1040E000200002090401000203000000092111015F
:1040F000000122B500070583031000010705040332
:1041000002000106C9FF0904A15C7508150026FF1D
:104110000095400975810295200976910295040960
:1041200076B102C005010905A101A10085010509BB
:1041300019012907150025019507750181029501CF
:10414000750181030501093009311581257F95022B
:1041500075088102850215002501050A0901A102E1
:104160000508094B750195019102C0050A0902A1D4
:10417000020508094B750195019102C0050A090362
:10418000A1020508094B750195019102C0050A09B4
:1041900004A1020508094B750195019102C0050AA9
:1041A0000905A1020508094B750195019102C00599
:1041B0000A0906A1020508094B750195019102C083
:1041C000050A0907A1020508094B7501950191022D
:1041D000C0950175099103C0C0002003530044003D
:1041E00056005800200043006F006E0074007200FB
:1041F0006F006C006C0065007200040309040C037E
:1042000000000000000000000000000000000000AE
:0442100000000000AA
:00000001FF
