:1000000000800020BD010000E5300000B13000009C
:10001000B1300000B1300000B1300000B13000005C
:10002000B1300000B1300000B1300000E530000018
:10003000E5300000B1300000E5300000A1300000E4
:10004000E5300000E5300000E5300000E53000005C
:10005000E5300000E5300000E5300000E53000004C
:10006000E5300000E5300000E5300000E53000003C
:10007000E5300000E5300000E5300000E53000002C
:10008000E5300000E5300000E5300000E53000001C
:10009000E5300000E5300000E5300000E53000000C
:1000A000E5300000E5300000E5300000E5300000FC
:1000B000E5300000E5300000E5300000E5300000EC
:1000C000E5300000E5300000E5300000E5300000DC
:1000D000E5300000E5300000E5300000E5300000CC
:1000E000E5300000E5300000E5300000E5300000BC
:1000F000E5300000DD180000E5300000991F000029
:10010000E530000099240000E5300000E5300000F3
:10011000E5300000E5300000E5300000E53000008B
:10012000E5300000E5300000E5300000E53000007B
:10013000E5300000E5300000E5300000E53000006B
:10014000E5300000E5300000E5300000E53000005B
:10015000E5300000E5300000E5300000E53000004B
:10016000E53000007D270000E5300000E5300000AC
:10017000E5300000E5300000E5300000E53000002B
:10018000E5300000E5300000E5300000E53000001B
:10019000E5300000E5300000E5300000E53000000B
:1001A000E5300000E5300000E5300000E5300000FB
:1001B000E5300000E5300000E5300000564B4CF221
:1001C000205210B51A804DF628121A8000BF00BFC9
:1001D00002F08CFF514B4FF010621A60504A9A6047
:1001E000504ADA60A3F53043203B1A6812F480725B
:1001F00004D14D490A604FF4A8521A604B4B1A784B
:10020000110703D51A7842F008021A70484B2A22C7
:100210001A700023474A48499818884204D247492F
:10022000595899500433F5E7454A464B9A424FF0E6
:10023000000302D242F8043BF7E74349434A5958C6
:1002400099500433B3F5DE7FF7D1414B802103F899
:10025000011B40498B42F9D13F4B1A603F4B8A2228
:100260001A70A3F5805324225A70A0221A709A792A
:100270009207FCD59A79D406FCD4394B9A7902F0CE
:100280000C02082AF9D105221A7143225A719A796F
:100290009006FCD5324B9A795106FBD5314A4FF086
:1002A000817111600521516020221A702C4B9B79BD
:1002B00003F00C030C2BF9D12B4B2C4A1A602C4B5E
:1002C0002C4A1A6000225A60072243F8042C2A4A5A
:1002D000C3F80C2D62B600F0B5FD134B1B68DA07AE
:1002E00005D5264800F0B8FC254B264A1A60264B57
:1002F0001B785B0609D5224C224A2368934204D11D
:100300001E4800F0A9FC0023236002F033FF02F036
:10031000F3FE00F0E7FDFEE70E20054030800440CC
:10032000823F04000100002B14D0034002D007409C
:1003300000E00740F087FF1F548BFF1FD8350000F7
:10034000548BFF1F108FFF1F000000000082FF1F53
:1003500000E400E05FE400E008ED00E0005006404B
:10036000004006404480044004800440C010050062
:1003700014E000E03F190100000020200C36BC54BE
:100380001CE00340A5C3945A00F00740FFFFFFFFA5
:10039000FFFFFFFFFFFFFFFFFFFFFFFFFFFFFFFF6D
:1003A000FFFFFFFFFFFFFFFFFFFFFFFFFFFFFFFF5D
:1003B000FFFFFFFFFFFFFFFFFFFFFFFFFFFFFFFF4D
:1003C000FFFFFFFFFFFFFFFFFFFFFFFFFFFFFFFF3D
:1003D000FFFFFFFFFFFFFFFFFFFFFFFFFFFFFFFF2D
:1003E000FFFFFFFFFFFFFFFFFFFFFFFFFFFFFFFF1D
:1003F000FFFFFFFFFFFFFFFFFFFFFFFFFFFFFFFF0D
:10040000FFFFFFFFFFFFFFFFFFFFFFFFDEF9FFFF23
:1004100010B5054C237833B9044B13B10448AFF33E
:1004200000800123237010BD548BFF1F00000000CB
:10043000D835000008B5064B1BB106480649AFF396
:1004400000800648036813B1054B03B1984708BD07
:1004500000000000D8350000588BFF1F548BFF1F91
:100460000000000000207047044BFF221A70002299
:100470005A80DA604FF0FF329A607047F88BFF1FA6
:1004800010B50368017A1C7843681A78437A1A40D9
:10049000837A0C4203F0030318BF43F004030AB14C
:1004A00043F008039A10013B82720D2B14D8DFE849
:1004B00003F0070A0D0A1310070710130A0D0A07A5
:1004C000C368013307E0C368013B04E0C36802333B
:1004D00001E0C368023BC36010BDFFFF08B5034BDA
:1004E000D3F88400FFF7CCFF08BD00BF708BFF1F5F
:1004F00008B5034BD3F88000FFF7C2FF08BD00BF6B
:10050000708BFF1F08B5024BD86FFFF7B9FF08BD0E
:10051000708BFF1F08B5024B986FFFF7B1FF08BD46
:10052000708BFF1F08B5024B586FFFF7A9FF08BD7E
:10053000708BFF1F08B5024B186FFFF7A1FF08BDB6
:10054000708BFF1F08B5024BD86EFFF799FF08BDEF
:10055000708BFF1F08B5024B986EFFF791FF08BD27
:10056000708BFF1F08B5024B586EFFF789FF08BD5F
:10057000708BFF1F08B5024B186EFFF781FF08BD97
:10058000708BFF1F08B5024BD86DFFF779FF08BDD0
:10059000708BFF1F08B5024B986DFFF771FF08BD08
:1005A000708BFF1F08B5024B586DFFF769FF08BD40
:1005B000708BFF1F08B5024B186DFFF761FF08BD78
:1005C000708BFF1F08B5024BD86CFFF759FF08BDB1
:1005D000708BFF1F08B5024B986CFFF751FF08BDE9
:1005E000708BFF1F08B5024B586CFFF749FF08BD21
:1005F000708BFF1F08B5024B186CFFF741FF08BD59
:10060000708BFF1F08B5024BD86BFFF739FF08BD91
:10061000708BFF1F08B5024B986BFFF731FF08BDC9
:10062000708BFF1F08B5024B586BFFF729FF08BD01
:10063000708BFF1F08B5024B186BFFF721FF08BD39
:10064000708BFF1F08B5024BD86AFFF719FF08BD72
:10065000708BFF1F08B5024B986AFFF711FF08BDAA
:10066000708BFF1F08B5024B586AFFF709FF08BDE2
:10067000708BFF1F08B5024B186AFFF701FF08BD1A
:10068000708BFF1F08B5024BD869FFF7F9FE08BD54
:10069000708BFF1F08B5024B9869FFF7F1FE08BD8C
:1006A000708BFF1F08B5024B5869FFF7E9FE08BDC4
:1006B000708BFF1F08B5024B1869FFF7E1FE08BDFC
:1006C000708BFF1F08B5024BD868FFF7D9FE08BD35
:1006D000708BFF1F08B5024B9868FFF7D1FE08BD6D
:1006E000708BFF1F08B5024B5868FFF7C9FE08BDA5
:1006F000708BFF1F08B5024B1868FFF7C1FE08BDDD
:10070000708BFF1F08B5212800F2D580DFE810F0BC
:10071000220027002C00310036003C00410046003A
:100720004B00500055005A005F00640069006E00E5
:10073000730078007D00820087008C009100960095
:100740009B00A000A500AA00AF00B400B900BE0045
:10075000C300CD00594B002019605949A0E0574B08
:100760000120596057499BE0544B0220996056493B
:1007700096E0524B0320D960544991E04F4B04203E
:100780001961024652498CE04C4B05205961514990
:1007900086E04A4B062099614F4981E0474B07208C
:1007A000D9614E497CE0454B082019624C4977E0FD
:1007B000424B092059624B4972E0404B0A20996232
:1007C00049496DE03D4B0B20D962484968E03B4BFD
:1007D0000C201963464963E0384B0D2059634549A5
:1007E0005EE0364B0E209963434959E0334B0F20AE
:1007F000D963424954E0314B1020196440494FE01D
:100800002E4B112059643F494AE02C4B1220996429
:100810003D4945E0294B1320D9643C4940E0274B32
:10082000142019653A493BE0244B15205965394994
:1008300036E0224B16209965374931E01F4B1720CF
:10084000D96536492CE01D4B18201966344927E03C
:100850001A4B19205966334922E0184B1A20996621
:1008600031491DE0154B1B20D966304918E0134B68
:100870001C2019672E4913E0104B1D2059672D4984
:100880000EE00E4B1E2099672B4909E00B4B1F20F1
:10089000D9672A4904E0094BC3F880102849202071
:1008A000042200F049FA012008BD044B2120C3F8BE
:1008B00084102449F4E7002008BD00BF708BFF1F9F
:1008C000F5060000E5060000D5060000C50600009C
:1008D000B5060000A506000095060000850600008C
:1008E000750600006506000055060000450600007C
:1008F000350600002506000015060000050600006C
:10090000F5050000E5050000D5050000C50500005F
:10091000B5050000A505000095050000850500004F
:10092000750500006505000055050000450500003F
:10093000350500002505000015050000050500002F
:10094000F1040000DD04000070B5044615460E46B3
:100950000846022100F0BEF92846022100F0BAF94B
:10096000174A52F8363003F50071216001212172D7
:1009700052F83520617202F500700021E16060607C
:100980004BF6803101397FF4FDAF93F8003292F8D5
:10099000002203F00103D20744BF43F00203DBB29D
:1009A000A37221463046FFF7ADFE2146207428464B
:1009B000FFF7A8FE237C18442074204670BD00BFBA
:1009C000D032000010B500240A4B0221185D023419
:1009D00000F080F9102CF7D10024074B0121185D9D
:1009E000013400F077F9082CF7D1044B01221A707A
:1009F00010BD00BFCC88FF1FDC88FF1F448CFF1F89
:100A000038B50024374D285D254400F055F96A7843
:100A1000013AD2B278B1072A16D8334B012101FA34
:100A200002F2197821EA02021A70304B1B785BB986
:100A300000F07CF808E0072A06D82B4B012101FAC8
:100A400002F219780A43EFE70234102CDAD1284C6D
:100A500004F13005237C012B04D872B62046FFF741
:100A60000FFD00E072B6E36862B69BB1227D1E49BD
:100A7000FF2B28BFFF23782A1C4A05D14B7013781F
:100A800023B900F053F801E08B70F8E772B6002349
:100A9000E36062B61834AC42DCD11648002100F0A5
:100AA00081F80024134B1968134BE140185D01F0E5
:100AB0000101013400F0E0F8082CF3D10A4D0F4C8D
:100AC00028462146032202F07DFB28B100F02EF8D3
:100AD0002B882380AB78A3700120BDE8384000F05C
:100AE0009BB900BFCC88FF1F058FFF1F448CFF1FE1
:100AF0000C8CFF1F088CFF1FDC88FF1F3C8CFF1F26
:100B000010B5094C012100222046FFF71DFF782374
:100B1000237504F1180002210322FFF715FF792342
:100B200084F82C3010BD00BF0C8CFF1F37B5194B5B
:100B30001A680092009C1D46174B1B7823B30320B4
:100B400001F08EFD022808D92B680193019B1B1B25
:100B50001E2B1CD800F0ECF9EEE701F005FD014674
:100B60000028F1D00D4B00221A700D4B1A889B788B
:100B7000C372012404230472A0F809200380032017
:100B800001F0BCFD204603E04FF0FF3000E0002004
:100B900003B030BD408CFF1FF38EFF1F3F8CFF1F43
:100BA000058FFF1FF7B5134B1A680092009E05468C
:100BB0000C461F46104B1B78A3B1042001F034FDF6
:100BC00048B93A680192019A921BA2420DD86CB1C1
:100BD00000F0AEF9EEE7B0F809302B8001F0E2FC4E
:100BE000022004E04FF0FF3001E000E0204603B0B7
:100BF000F0BD00BF408CFF1FF38EFF1F7047FFFF4B
:100C000000F14040A0F592237C2B14D9A0F5942349
:100C10007C2B12D9A0F596237C2B10D9A0F5982314
:100C20007C2B06D9A0F59A207D28064828BF0020F5
:100C300070470548704705487047054870470548A4
:100C4000704700BFBC89FF1F9C89FF1FE488FF1FFE
:100C50001C89FF1F6C89FF1F044B054900221A6085
:100C60000A60044A106010221A60704714D00340D2
:100C700004D0034000D00340212810B518D80D4AF5
:100C800052F8303093F880423CB1012211B183F820
:100C9000802010BD83F8002110BD02EBC000436826
:100CA0001A6811B142F0030201E022F002021A6058
:100CB00010BD00BFD0320000212806D8044B53F8E5
:100CC000303093F80002C0B270470020704700BF78
:100CD000D0320000212810B52BD8164A02EBC003F1
:100CE00001295B68144601D004290FD154F8302043
:100CF000012082F880024FF4A2721A601A68042957
:100D00000CBF42F0200222F0200211E052F8300025
:100D1000002280F8802211B94FF4807208E0022985
:100D200002D140F2031203E0032908BF4FF481729D
:100D30001A6010BDD0320000212870B50D463CD895
:100D4000042A3AD8DFE802F00709050B03000B2359
:100D500006E00A2304E0082302E00C2300E0092354
:100D60001E04164B03EBC0035C68216811F4E061BC
:100D700001D1FFF7AFFF124B124AC3F89C21124A70
:100D8000C3F8A021114AC3F8A421114AC3F8A8212D
:100D90002046104AC3F8AC21FFF732FF68B172B6A3
:100DA000226822F470222260C4F3840342F080722D
:100DB000164340F82350266062B670BDD032000062
:100DC0000082FF1FA188FF1F7588FF1F4988FF1F32
:100DD0001D88FF1FF187FF1F72B60C4B0C491A6864
:100DE0000C4B1B68096862B6490102D5322A88BFDC
:100DF0000133C2F58C32482102F23F12B2FBF1F20C
:100E00004FF47A7000FB0320704700BF18E000E049
:100E100004ED00E0408CFF1F38B50446FFF7DCFF0F
:100E2000054624B938BD013C0AD005F57A75FFF7AF
:100E3000D3FF401BB0F57A7FF5D200F079F8F6E7E2
:100E400038BDFFFF204B4FF4000210B51A604FF081
:100E500080721A604FF000721A604FF080621A6060
:100E60004FF000621A60194B194A1A4C002048F6DC
:100E7000FF711860596028231360936013619361B8
:100E800013629362136393630922226004F5805412
:100E9000043420606160A360236144F8042C04F5ED
:100EA000FE2420600C4801600C490B608B600C4BE9
:100EB0001A6000F0FBF94FF4C870FFF7ADFFBDE812
:100EC000104001F049BF00BF08E100E0048003408A
:100ED0000C8003400080034008800B400C800B40D6
:100EE00000800B4008B5FFF76DFDFFF789FD00F0AE
:100EF0001FF8FAE701F0F2BF01F0A6BF01F0CEBF84
:100F000002F090B8084602F081B80846114602F097
:100F10000BB87047044B00221A714FF47A711A73A0
:100F2000024A99601A607047488CFF1FE83300003E
:100F300010B50E4C2378BBB90123237001F0CEFF0E
:100F400008B1FFF7E6FF00F053FC08B100F08AF8A3
:100F500000F0ACFF08B100F00FF901F039FA08B168
:100F600000F094F90023237010BD00BF588CFF1FC0
:100F700008B50368C9B21B68984708BD08B503687F
:100F8000C9B21B68984708BD08B50368C9B21B6899
:100F9000984708BD08B50368C9B21B68984708BDE3
:100FA000034800EB5100B0FBF1F000F0DBB900BFEB
:100FB0000044950810B5064800EB51001446B0FBFC
:100FC000F1F000F0CFF92046BDE8104000F02EBA55
:100FD0000044950800F054BA084600F085BA084667
:100FE00000F0D4BA0846114600F09ABA08B508468F
:100FF00000F0F2FA003018BF012008BD08B508461D
:1010000000F00CFB003018BF012008BD00F0F0BB61
:1010100000F028BC00F0FCBB00F0CEBB00F03ABCF6
:1010200000F0D4BB08B5084600F01EFB012008BD47
:1010300008B5084600F018FB012008BD10B50846A9
:101040001446114600F05AFB204610BD38B508463C
:101050000D4602F0EBF804462146284600F04EFB10
:10106000204638BD7047FFFF044B00221A714FF431
:101070007A711A73024A99601A6070475C8CFF1F7C
:101080000834000008B50368C9B21B68984708BD5A
:1010900008B50368C9B21B68984708BD08B503685E
:1010A000C9B21B68984708BD08B50368C9B21B6878
:1010B000984708BD034800EB5100B0FBF1F000F089
:1010C00091BC00BF0044950810B5064800EB5100E4
:1010D0001446B0FBF1F000F085FC2046BDE810405E
:1010E00000F0E4BC0044950800F00ABD084600F09A
:1010F0005FBD084600F0AEBD0846114600F074BD65
:1011000008B5084600F0CEFD003018BF012008BD2C
:1011100008B5084600F0E8FD003018BF012008BD02
:1011200000F0C4BE00F0FCBE00F0D0BE00F0A2BED5
:1011300000F00EBF00F0A8BE08B5084600F0F2FDB2
:10114000012008BD08B5084600F0ECFD012008BDEF
:1011500010B508461446114600F02EFE204610BD7C
:1011600038B508460D4602F061F804462146284687
:1011700000F022FE204638BD7047FFFF044B0022DE
:101180001A714FF47A711A73024A99601A607047A3
:101190006C8CFF1F6834000008B50368C9B21B6877
:1011A000984708BD08B50368C9B21B68984708BDD1
:1011B00008B50368C9B21B68984708BD08B503683D
:1011C000C9B21B68984708BD034800EB5100B0FB4B
:1011D000F1F000F065BF00BF00A24A0410B5064858
:1011E00000EB51001446B0FBF1F000F059FF20462F
:1011F000BDE8104000F096BF00A24A0400F0BCBF5A
:10120000084600F0EDBF084601F02EB8084611462A
:1012100001F002B808B5084601F028F8003018BF00
:10122000012008BD08B5084601F042F8003018BF9B
:10123000012008BD01F0CCB801F004B901F0D8B824
:1012400001F0AAB801F016B901F0B0B808B5084627
:1012500001F04CF8012008BD08B5084601F046F839
:10126000012008BD10B508461446114601F088F863
:10127000204610BD38B508460D4601F0D7FF04469C
:101280002146284601F07CF8204638BD7047FFFF14
:10129000044B00221A714FF47A711A73024A996052
:1012A0001A6070477C8CFF1FC834000010B5204BBB
:1012B0002048214960221A70E1225A701F4B204AAF
:1012C0001C78204B082C01D1012402E00A2C03D108
:1012D00019240460132005E00C2C0CBF15243D24B8
:1012E00004601220086014601860174B17491B78BF
:1012F000174A03B101230B601360164B164A197885
:10130000164B012901D880210BE0042901D8842142
:1013100007E0082901D8852103E0102994BF862120
:101320008721116019600E4B01221A7010BD00BF99
:101330000040074008B003400CB00340C489FF1FC1
:1013400008B00B400CB00B408D8CFF1F20B0034049
:1013500020B00B40C589FF1F24B0034024B00B40D0
:101360008C8CFF1F234B1A6842F480621A60224A59
:1013700000231370214A1370214A1370214A1370FD
:10138000214A1370214B1B782BB1152B07D140F24A
:1013900013321F4B02E01F4B40F213321A601E4BF8
:1013A0001B78012B05D0052B07D14FF451721B4B35
:1013B00002E01B4B4FF451721A601A4BC0F34432D7
:1013C0001A70C0F347125A700221042200F01F0065
:1013D00098729A70D9745A7588221A743C22DA70FD
:1013E000114B40226FF44A711A700B444FF40052B3
:1013F0001A60704734800440178DFF1F958CFF1FC3
:10140000208DFF1F188DFF1F948CFF1FD68CFF1F90
:1014100018C0044040A00440C689FF1F1CC00440FF
:1014200044A0044000A006402DE400E0134A937855
:1014300000F0030103F0EC030B43410748BF43F006
:101440001003937000F00F03042B0C4903D18B7928
:1014500043F040038B715379C20603F0EF03074A50
:1014600048BF43F0100353719379810603F0EF03F3
:1014700048BF43F010039371704700BF00A00640BF
:1014800008B5114B1B685B0500D408BD0F4B1A78DB
:1014900002F0FF0312B1FFF74BFDF7E70C4A4FF4E0
:1014A000005111600B4A0C49D37040F203120A60DC
:1014B0004A600A4A13700A4A13700A4B1B680BB140
:1014C00001221A7008BD00BF34800440948CFF1FB5
:1014D00084E100E000A0064040A00440178DFF1FFB
:1014E000958CFF1F908CFF1F38B50446094B1B7865
:1014F00003F0FF05002BF9D120460121FFF7EAFB9D
:1015000020462946FFF7B8FB034B53F83420034B22
:101510001A6038BD948CFF1FD03200001C8DFF1F55
:1015200010B509B140F08000144A1378984214466F
:1015300022D0134A126852051DD503F07F03012BF8
:1015400004D0052B05D100220E4B01E00E4B0022EA
:101550001A60002900F07F020CBF44236023012A97
:1015600005D0052A07D143F44073064A02E0064A33
:1015700043F440731360207010BD00BFC689FF1F85
:10158000348004401CC0044044A004400E4A137838
:10159000984218D00D490968490513D52BB1152B70
:1015A00005D10B4B0021196001E00A490B6028B1FD
:1015B000152807D140F21331054B02E0054B40F2EC
:1015C0001331196010707047D68CFF1F34800440AF
:1015D00018C0044040A004400D4A38B5146814F403
:1015E00080624FF0000410D021280A4D0AD80A4A20
:1015F000012152F830302B60FFF76CFB2B681C7018
:10160000012038BD2C60204638BD104638BD00BFD3
:1016100034800440908CFF1FD03200000E4B1B68BA
:1016200013F4806316D012280C4B03D140F2023120
:101630000B4A04E0142809D10A4A40F20231116031
:101640005A7B42F001025A73012070475A7B02F024
:10165000FE025A73002070473480044000A0064008
:101660000CA0044014C00440F8B51D4B1B685A057B
:10167000064633D51B4B1B680BB101221A701A4B5F
:101680001C780134402C1F4628BF0024174D2B78AE
:10169000A34218D101F032FD40280FDC144A13791F
:1016A0001B06F3D52B7813490133402B28BF0023A9
:1016B000C95CDBB2C9B2D1712B70E7E7FF28E5DD69
:1016C000FFF736FCE2E70B4BF6B21E550A4B012240
:1016D0001A70074BE4B2BC223C70DA70F8BD00BF50
:1016E000348004401C8DFF1F208DFF1F188DFF1FAD
:1016F00000A00640968CFF1F948CFF1F274B1B6891
:101700005A052DE9F04707468A4644D5244B1B6805
:101710000BB101221A703D4607EB0A039D4237D2F6
:10172000DFF890801F4E98F8004096F80090013442
:10173000402C28BF00245FFA89F9A1451DD11A4B1E
:10174000BC22DA7001F0DAFC40280FDC164A13796B
:101750001B060FD5337815490133402B28BF0023D2
:10176000C95CDBB2C9B2D171337003E0FF2801DD7F
:10177000FFF7DEFB33784B45E4D00C4B15F8012B1B
:101780001A550B4B0122E4B21A7088F80040C3E7E7
:10179000054BBC22DA70BDE8F08700BF34800440FE
:1017A0001C8DFF1F188DFF1F00A00640968CFF1F89
:1017B000948CFF1F208DFF1F08B5034B1B7813B1BE
:1017C000FFF7B6FBF9E708BD948CFF1F064A074BED
:1017D0001B781078DBB2C0B283422CBF3F3000F1DF
:1017E000FF30C01A704700BF188DFF1F208DFF1FEC
:1017F000054B1878054B1B78C0B2DBB2984238BF56
:101800004030C01A704700BF178DFF1F958CFF1F17
:1018100010B5104B10491A780B78D2B2DBB29A424D
:1018200014D00133402B28BF00230C48DCB2C05C2D
:101830000C700B490968C0B251B19A4238BF4032AE
:10184000D31A1A2B04DC00230B7010BD4FF0FF30AD
:1018500010BD00BF178DFF1F958CFF1FD78CFF1F7A
:10186000908CFF1F084B1A78084B1B78DBB29A420A
:1018700007D00133402B28BF0023054AD05CC0B2FB
:1018800070474FF0FF307047178DFF1F958CFF1F7B
:10189000D78CFF1F0C4B1B685B0514D50B4BDA78FC
:1018A00002F0CB02DA7040225A74DA7842F0340245
:1018B000DA70074B1A78074BD2B21A70064B1B68C6
:1018C0000BB100221A7070473480044000A006401B
:1018D000958CFF1F178DFF1F908CFF1F30B5374B66
:1018E0001A7912F0300F31D072B69A7D02F0FF00F3
:1018F00022B9DA7940225A7462B627E062B6304AD9
:10190000304913780978DBB2C9B214462B4AD5792D
:101910005A1C402A28BF00228A42EDB202D02A4B2C
:101920009D541346421E12F0FF00EFD1DAB222702E
:10193000264A126852B18B4236BFC1F14001C1EB59
:1019400003035B18272BC4BF012313701B4BD978EB
:10195000C9B20C0620D51B7918061DD51C4B1D4A93
:101960001D781378EDB2DBB21046AB420CD0134AAF
:101970000133402B1479184C28BF0023E45CE4B2F7
:10198000D471127D072AF0D9DBB203700B4B1A79A0
:10199000120644BF7C22DA704B060ED5074B1A792B
:1019A00012F0400F194608D00C4B00221A700C4B55
:1019B0001B6803B11A703C23CB7030BD00A00640F9
:1019C000178DFF1F958CFF1FD78CFF1F908CFF1F5B
:1019D000208DFF1F188DFF1F968CFF1F948CFF1FFB
:1019E0001C8DFF1F234B1A6842F400621A60224AC2
:1019F00000231370214A1370214A1370214A137077
:101A0000214A1370214B1B78092B05D01A2B07D1C3
:101A100040F213321E4B02E01E4B40F213321A60AA
:101A20001D4B1B780A2B05D01F2B07D14FF4517289
:101A30001A4B02E01A4B4FF451721A60194BC0F363
:101A400044321A70C0F347125A7000F01F0004228B
:101A5000022198729A70D9745A7588221A743C229D
:101A6000DA70114B40221A70A3F22B334FF400426C
:101A70001A60704734800440928DFF1F298DFF1F2C
:101A8000988DFF1F938DFF1F288DFF1FC789FF1F94
:101A900004D004400CB00440C889FF1F00D00440AB
:101AA00010B0044000B006402FE400E0134A9378E1
:101AB00000F0030103F0EC030B43410748BF43F080
:101AC0001003937000F00F03042B0C4903D18B79A2
:101AD00043F040038B715379C20603F0EF03074ACA
:101AE00048BF43F0100353719379810603F0EF036D
:101AF00048BF43F010039371704700BF00B0064029
:101B000008B51E4B1B681B0500D408BD1C4B1B7879
:101B100003F0FF0213B1FFF70BFAF7E7194B4FF48D
:101B200000411960184BDA70184B1B78092B05D04F
:101B30001A2B07D140F20312154B02E0154B40F26D
:101B400003121A60144B1B7803F07F030A2B05D095
:101B50001F2B07D140F20312104B02E0104B40F252
:101B600003121A600F4A002313700F4A13700F4BB1
:101B70001B680BB101221A7008BD00BF34800440FD
:101B8000288DFF1F84E100E000B00640C789FF1FD9
:101B900004D004400CB00440C889FF1F00D00440AA
:101BA00010B00440928DFF1F298DFF1F248DFF1F51
:101BB00038B50446094B1B7803F0FF05002BF9D11B
:101BC00020460121FFF786F820462946FFF754F802
:101BD000034B53F83420034B1A6038BD288DFF1F88
:101BE000D0320000948DFF1F10B509B140F0800085
:101BF000144A13789842144622D0134A12681205E8
:101C00001DD503F07F030A2B04D01F2B05D1002222
:101C10000E4B01E00E4B00221A60002900F07F02FB
:101C20000CBF442360230A2A05D01F2A07D143F49E
:101C30004073064A02E0064A43F440731360207082
:101C400010BD00BFC889FF1F3480044000D004408D
:101C500010B004400F4A137898421AD00E49096810
:101C6000090515D5092B04D01A2B05D100210B4BE2
:101C700001E00B4B00211960092805D01A2807D173
:101C800040F21331054B02E0054B40F2133119606D
:101C900010707047C789FF1F3480044004D004408F
:101CA0000CB004400D4A38B5146814F400624FF0CB
:101CB000000410D021280A4D0AD80A4A012152F8FE
:101CC00030302B60FFF706F82B681C70012038BD00
:101CD0002C60204638BD104638BD00BF348004401B
:101CE000248DFF1FD03200000B4B1B6813F40063E0
:101CF00010D01728094B09D1094A40F2023111606E
:101D00005A7B42F001025A73012070475A7B02F05D
:101D1000FE025A73002070473480044000B0064031
:101D200008B00440F8B51D4B1B681A05064633D5AC
:101D30001B4B1B680BB101221A701A4B1C78013423
:101D4000282C1F4628BF0024174D2B78A34218D1FA
:101D500001F0D4F940280FDC144A13791B06F3D59F
:101D60002B7813490133282B28BF0023C95CDBB231
:101D7000C9B2D1712B70E7E7FF28E5DDFFF7D8F88E
:101D8000E2E70B4BF6B21E550A4B01221A70074BC5
:101D9000E4B2BC223C70DA70F8BD00BF348004406D
:101DA000948DFF1F988DFF1F938DFF1F00B006407D
:101DB0002A8DFF1F288DFF1F274B1B681A052DE951
:101DC000F04707468A4644D5244B1B680BB10122D5
:101DD0001A703D4607EB0A039D4237D2DFF8908028
:101DE0001F4E98F8004096F800900134282C28BF28
:101DF00000245FFA89F9A1451DD11A4BBC22DA7083
:101E000001F07CF940280FDC164A13791B060FD528
:101E1000337815490133282B28BF0023C95CDBB276
:101E2000C9B2D171337003E0FF2801DDFFF780F8FC
:101E300033784B45E4D00C4B15F8012B1A550B4B5E
:101E40000122E4B21A7088F80040C3E7054BBC22B7
:101E5000DA70BDE8F08700BF34800440948DFF1F26
:101E6000938DFF1F00B006402A8DFF1F288DFF1F96
:101E7000988DFF1F08B5034B1B7813B1FFF758F877
:101E8000F9E708BD288DFF1F064A074B1B7810781D
:101E9000DBB2C0B283422CBF273000F1FF30C01A42
:101EA000704700BF938DFF1F988DFF1F054B18785B
:101EB000054B1B78C0B2DBB2984238BF4030C01A25
:101EC000704700BF928DFF1F298DFF1F10B5104B6B
:101ED00010491A780B78D2B2DBB29A4214D001338F
:101EE000402B28BF00230C48DCB2C05C0C700B49AF
:101EF0000968C0B251B19A4238BF4032D31A1A2B86
:101F000004DC00230B7010BD4FF0FF3010BD00BF8C
:101F1000928DFF1F298DFF1F528DFF1F248DFF1FE4
:101F2000084B1A78084B1B78DBB29A4207D0013372
:101F3000402B28BF0023054AD05CC0B270474FF049
:101F4000FF307047928DFF1F298DFF1F528DFF1F9D
:101F50000C4B1B681B0514D50B4BDA7802F0CB0237
:101F6000DA7040225A74DA7842F03402DA70074BA1
:101F70001A78074BD2B21A70064B1B680BB10022BD
:101F80001A7070473480044000B00640298DFF1F4E
:101F9000928DFF1F248DFF1F30B5374B1A7912F039
:101FA000300F31D072B69A7D02F0FF0022B9DA7993
:101FB00040225A7462B627E062B6304A304913783C
:101FC0000978DBB2C9B214462B4AD5795A1C402A8B
:101FD00028BF00228A42EDB202D02A4B9D541346FC
:101FE000421E12F0FF00EFD1DAB22270264A1268C8
:101FF00052B18B4236BFC1F14001C1EB03035B1804
:10200000272BC4BF012313701B4BD978C9B20C0610
:1020100020D51B7918061DD51C4B1D4A1D78137839
:10202000EDB2DBB21046AB420CD0134A0133282B81
:102030001479184C28BF0023E45CE4B2D471127DFB
:10204000072AF0D9DBB203700B4B1A79120644BF92
:102050007C22DA704B060ED5074B1A7912F0400F2E
:10206000194608D00C4B00221A700C4B1B6803B1A8
:102070001A703C23CB7030BD00B00640928DFF1F1C
:10208000298DFF1F528DFF1F248DFF1F988DFF1F6D
:10209000938DFF1F2A8DFF1F288DFF1F948DFF1F1B
:1020A000174B1A6842F480521A60164A00231370C4
:1020B000154A1370154A1370154A1370154A137098
:1020C000154A40F2133111604FF451715160134AB7
:1020D000C0F344311170C0F3471100F01F0051707C
:1020E0009072937013742C23D3700D4B40226FF4B5
:1020F0004B711A700B444FF400321A60704700BFE6
:10210000348004400A8EFF1FA18DFF1F108EFF1F19
:102110000B8EFF1FA08DFF1F08C0044000C00640AB
:1021200031E400E0134A937800F0030103F0EC037C
:102130000B43410748BF43F01003937000F00F03B7
:10214000042B0C4903D18B7943F040038B715379F5
:10215000C20603F0EF03074A48BF43F01003537170
:102160009379810603F0EF0348BF43F010039371A6
:10217000704700BF00C0064008B5114B1B68DB0468
:1021800000D408BD0F4B1A7802F0FF0312B1FEF71E
:10219000CFFEF7E70C4A4FF4003111600B4A0C49AF
:1021A000D37040F203120A604A600A4A13700A4A66
:1021B00013700A4B1B680BB101221A7008BD00BFD7
:1021C00034800440A08DFF1F84E100E000C0064081
:1021D00008C004400A8EFF1FA18DFF1F9C8DFF1FAA
:1021E00038B50446094B1B7803F0FF05002BF9D1E5
:1021F00020460121FEF76EFD20462946FEF73CFDF4
:10220000034B53F83420034B1A6038BDA08DFF1FD9
:10221000D03200000C8EFF1F10B509B140F08000D5
:102220000E4A1378984217D00D4C2468E40412D556
:1022300003F07F03082B02D10A4B00241C60002905
:1022400000F07F030CBF44216021082B03D1054B14
:1022500041F440711960107010BD00BFC989FF1FA3
:10226000348004400CC004407047FFFF0D4A38B56D
:10227000146814F480524FF0000410D021280A4D45
:102280000AD80A4A012152F830302B60FEF722FDAD
:102290002B681C70012038BD2C60204638BD1046CC
:1022A00038BD00BF348004409C8DFF1FD032000039
:1022B0000B4B1B6813F4805310D00E28094B09D127
:1022C000094A40F2023111605A7B42F001025A730E
:1022D000012070475A7B02F0FE025A7300207047BB
:1022E0003480044000C0064004C00440F8B51D4BD3
:1022F0001B68DA04064633D51B4B1B680BB1012261
:102300001A701A4B1C780134282C1F4628BF002451
:10231000174D2B78A34218D100F0F0FE40280FDCB7
:10232000144A13791B06F3D52B7813490133282B54
:1023300028BF0023C95CDBB2C9B2D1712B70E7E7BB
:10234000FF28E5DDFEF7F4FDE2E70B4BF6B21E5584
:102350000A4B01221A70074BE4B2AC223C70DA70CF
:10236000F8BD00BF348004400C8EFF1F108EFF1F8D
:102370000B8EFF1F00C00640A28DFF1FA08DFF1F08
:1023800038B504464518AC4204D014F8010BFFF7E9
:10239000ADFFF8E738BDFFFF08B5034B1B7813B15D
:1023A000FEF7C6FDF9E708BDA08DFF1F064A074BE3
:1023B0001B781078DBB2C0B283422CBF273000F10B
:1023C000FF30C01A704700BF0B8EFF1F108EFF1F1B
:1023D000054B1878054B1B78C0B2DBB2984238BF6A
:1023E0004030C01A704700BF0A8EFF1FA18DFF1F2B
:1023F00010B5104B10491A780B78D2B2DBB29A4262
:1024000014D00133402B28BF00230C48DCB2C05C41
:102410000C700B490968C0B251B19A4238BF4032C2
:10242000D31A1A2B04DC00230B7010BD4FF0FF30C1
:1024300010BD00BF0A8EFF1FA18DFF1FCA8DFF1F99
:102440009C8DFF1F084B1A78084B1B78DBB29A4211
:1024500007D00133402B28BF0023054AD05CC0B20F
:1024600070474FF0FF3070470A8EFF1FA18DFF1F8E
:10247000CA8DFF1F054B1A78054BD2B21A70054B57
:102480001B680BB100221A70704700BFA18DFF1F9F
:102490000A8EFF1F9C8DFF1F10B5294B1A799206DB
:1024A00020D5284AD879137827490133402B097859
:1024B00028BF00238B42C0B203D02449C854D9B2EC
:1024C0001170234A116869B1224A1278D2B293423C
:1024D00036BFC2F14002C2EB03039B18272BC4BFD7
:1024E00001230B70164AD178C9B20C0616D51379A0
:1024F000180613D5184B17481C780378DBB29C429A
:1025000002D16C23D37009E00133282B28BF0023AC
:10251000124CE45CDBB2E4B2D47103704B060ED50E
:10252000074B1A7912F0400F194608D00C4B0022C5
:102530001A700C4B1B6803B11A702C23CB7010BDA2
:1025400000C006400A8EFF1FA18DFF1FCA8DFF1F0E
:102550009C8DFF1F0B8EFF1F108EFF1FA28DFF1F74
:10256000A08DFF1F0C8EFF1F72B60C4A1168B1FAC6
:1025700081F30D2B02D962B6002070474FF0004066
:10258000D84021EA0001116062B605494822534350
:10259000C8180022CA504260704700BFCC89FF1F94
:1025A0000084FF1F0C4B4822C31AB3FBF2F30D2B20
:1025B00011D80A4A127822B1094A12780AB100F0F9
:1025C00061B872B6074A4FF0004121FA03F311686F
:1025D0001943116062B670470084FF1FEA8EFF1F27
:1025E000F38EFF1FCC89FF1FF0B50C4B0C4C1A78F3
:1025F00042F0020504EBC50682F001027060094852
:102600001A700678002E0CBF8827C82786F00106AE
:1026100047EA0141067044F83510F0BD7C8EFF1F7B
:102620000080FF1FF48EFF1F431E032B10B510D830
:1026300072B6094A52F8230048B1416842F82310A3
:10264000064A018832F81340611A22F8131062B664
:1026500010BD002010BD00BF6C8EFF1F088FFF1F34
:10266000013803280AD872B6054B53F820300020F1
:1026700013B101305B68FBE762B67047002070471A
:10268000C08EFF1F10B572B60123174A1A4412F804
:10269000012C12071CD59900144A52F831402CB96C
:1026A00002EB431308305860114B09E041F001017F
:1026B00052F8314064B902EBC103083058600D4B49
:1026C00042F831300C4B1A78013A1A7062B610BDDC
:1026D0000133052BD9D162B6074B00221A70BDE831
:1026E0001040FFF75FBF00BF203500000080FF1FD4
:1026F00088004000C8004000EA8EFF1F431E032BE5
:1027000030B532D8194A400140F01000104472B67A
:10271000174CE25C032A09D8DFE802F0160218051C
:102720000830022213E00830042210E01148124A57
:1027300050F8234014B940F8231002E052F8230067
:10274000416042F823100FE0032200E00522E2542A
:1027500010F0080F01F108030A8843600CBF8823BA
:10276000C82343EA0243036062B630BD0080FF1F06
:10277000288EFF1FC08EFF1FD08EFF1F2DE9F84F40
:10278000A74F3C78E4B214F0040F3D4619D0A54B96
:102790001B78A3B1A44A117801F0FF0321B1013BDA
:1027A000DBB2137003B900BEA04A117801F0FF0339
:1027B00029B1013BDBB213700BB900F055FC0423C7
:1027C0003B7004F0080303F0FF02002B00F05C8272
:1027D000974B984C1A78D2B215094FEA920840F0FC
:1027E000D98154F8382004EBC803C2F38302013ABC
:1027F0005B680C2A00F2CB81DFE812F085018501CD
:10280000C901C901C901C901C901C901A501C9019C
:10281000C901C9010D00884D1A685B6887486B6063
:10282000874B44F8383001232A60DFF84082037078
:1028300092B240F2816000218242C8F8001021610A
:10284000A16117D8B2F5D06F80F01681B2F5817F03
:1028500000F0C78006D8802A00F0B280822A00F0FB
:10286000B38021E140F202339A4200F0C980B2F510
:10287000A06F14E0B2F5106F14D008D8B2F5086F4D
:1028800040F01281674A6F4C1278227014E140F6D2
:1028900021139A4200F0348140F621239A4200F03D
:1028A000078101E15F4B634EAA781A7006F1800937
:1028B000336A1B0603D5706A0838FFF773FE0836C3
:1028C0004E45F5D10026B146DFF8A4A156F80A001E
:1028D00028B1D0F804B0FFF765FE5846F8E74AF88B
:1028E0000600594BDFF88CA1F05056F80A0028B1C9
:1028F000D0F804B0FFF756FE5846F8E7534B4AF8B5
:102900000600F050524B23F81900524B19F80320DF
:10291000023A032A08D8DFE802F002040204002287
:1029200000E0012203F8092009F10109B9F1040FBF
:1029300006F10406C8D1484B00221A7001269A46B7
:10294000464A474B3244334412F8012C9B0012F0A4
:10295000080F1A704FEA860925D0FFF705FE38B137
:1029600004EB4613083058603E4B44F8393006E01B
:102970009AF8003044F8390001338AF80030FFF744
:10298000F3FD49F0010338B104EBC3020830506095
:102990002B4A44F8332006E044F833009AF800301C
:1029A00001338AF8003049F00202013649F0030988
:1029B0000023052E44F8323044F83930C0D178E095
:1029C000204C2170617076E0AA88042A6CD81D4CD6
:1029D000217061709100244A525C96076BD5237078
:1029E00069E0AA8802F07F02042A5DDC6B88002B74
:1029F0005AD191001C4A0A44117821F002010DE0DD
:102A0000AA8802F07F02042A4EDC6B88002B4BD18F
:102A10009100154A0A44117841F00201117048E012
:102A200080200740F38EFF1F7D8EFF1F048FFF1F46
:102A3000902007400080FF1FE08EFF1FF48EFF1FD5
:102A4000C8004000EB8EFF1F188EFF1FD08EFF1FA7
:102A5000088FFF1F288EFF1FEA8EFF1F2035000002
:102A600030C8011088004000C0200740148EFF1FAE
:102A70006C8EFF1FC08EFF1F6A88A9889E4B53F87B
:102A8000084CA3F10C007CB133F80C6C964209D1D0
:102A900033F80A6C8E4205D1120A032A0CBF237840
:102AA000038909E00C33EAE7944B0F221A7027E000
:102AB00000231C4600E00223EE88B34238BF1E46C6
:102AC000402E34BF3546402520462946FFF78CFD71
:102AD000761B2C4403D1402D12D1354603E0402E05
:102AE00034BF3546402520462946FFF77DFD761B3D
:102AF0002C4401D1402D03D1814AC8F800401680F2
:102B00000122804B42E0804A80481168814216D100
:102B10005268B2F5802F12D11A78A92A0FD15A78AB
:102B2000452A0CD19A78C22A09D1DB786B2B06D1C1
:102B3000774B0020052201461A70FFF755FD754BB3
:102B400044F8383023E0744E3568B5B1DFF8B08111
:102B5000B8F80090B9F1400F34BF4C4640242846E5
:102B60002146FFF741FDC4EB09039BB2A8F80030F2
:102B70000BB9402C00D12B193360634B1A88B2F586
:102B8000A06F04D100225A709A78644B1A70012207
:102B90005C4B6CE004EBC806013D736802F0080270
:102BA000A3F10800EDB202F0FF01002A36D0FFF7D2
:102BB000F9FC5B485B4B50F82520EAB1516840F8BE
:102BC000251002F108017160595D03290BD8DFE877
:102BD00001F002040608032104E0022102E00521BD
:102BE00000E00421595516F0080F12880CBF882305
:102BF000C82343EA024342E05A5D032A07D8DFE8CC
:102C000002F040400204002206E0012204E016F037
:102C1000080F0CBF022203225A5532E054F8382024
:102C2000120C23F8082C22B3DFF828E123F8061C45
:102C300043F8041C5EF825303B4913B94EF82500D3
:102C400002E051F825305860384B41F8250033F840
:102C500015100A4423F81520FFF786FC10B1083040
:102C6000706006E0324B44F838001A7801321A706E
:102C700007E0284B2F4A16F0080F08BF134644F808
:102C8000383008233B707BE5E0071FD51D492948F4
:102C9000294C02230B70294B1A70294B186098603D
:102CA0002848D8601A619A615C60144B0D20187036
:102CB0002548FF2303702B700274244A1370244BA1
:102CC0009F221A7001230B70BDE8F88F210604D5EE
:102CD0000A4B0D221A7080232B70A20705D51A4BC0
:102CE0001A78D2B21A7002232B70E30644BF102365
:102CF0002B70BDE8F88F00BF30350000C0200740C2
:102D0000E88EFF1F94200740E08EFF1F210900037B
:102D10007D8EFF1FC8004000148EFF1F98200740C3
:102D2000C08EFF1F288EFF1F188EFF1F088FFF1FEA
:102D3000EA8EFF1F880040002C8EFF1F7C8EFF1F35
:102D40000080FF1F808EFF1F882007408C200740D7
:102D5000842007406C8EFF1F08B500F03DF800226C
:102D60001A4B0021D15098180832882A4160F7D1B7
:102D7000174A106840F48020106002F5283268324B
:102D8000C3F307201070C3F307401B0E10751376B2
:102D9000FF2302F81C3C02F8143C02F88C3C01238F
:102DA00002F8083C82F8641002F8183C094B7022C3
:102DB0006FF450711A700B444FF400721A6003F1F3
:102DC000C04303F5C82310221A7008BD0080FF1FFE
:102DD0003480044049E400E01FB572B6154B702200
:102DE0001A70154A412111700F2102F8011C80222E
:102DF0001A701A781206FCD5104B186862B6104B80
:102E0000984298BF0A2301AC98BF584321460A2232
:102E100000F092F90023E15C0A4A29B102EB430079
:102E200001330A2B4180F6D101335B00137004B0EB
:102E300010BD00BF00000240070002400800024031
:102E40007F9698003E8BFF1F38B5124B1B78EBB175
:102E5000114C23681BB90220FFF7E6FB20602068B5
:102E60000D4D98B14388C218147A5CB102880133C1
:102E7000934204D3FFF796FB00232B6000E04380CE
:102E8000204638BDFFF78EFB2C60DEE74FF0FF30A9
:102E900038BD00BFF38EFF1F008FFF1F10B50D4B15
:102EA0001B788BB10C4C23681BB90220FFF7BCFBCD
:102EB0002060206840B1438803441C7A3CB9FFF786
:102EC00071FB054B1C60EAE74FF0FF3010BD204658
:102ED00010BD00BFF38EFF1F008FFF1F38B5104DD0
:102EE0002B6823B128680024028843880FE00D4B2B
:102EF0001B781BB10220FFF797FB28602C68002C81
:102F0000F0D10BE0C1182144097A19B10134E1185C
:102F10009142F7DB14B9FFF745FB2C60204638BD22
:102F2000008FFF1FF38EFF1F2DE9F843324D012361
:102F300007460C462B70002C5AD0304E3368B146F1
:102F40005BBB43F601482E4B1B7803F0FF020BB925
:102F50002A7018E00120FFF783FB052804D9B8F197
:102F60000108284A09D10AE001232B70FFF7FCFA77
:102F7000C9F800000028F2D00FE013783BB101231C
:102F8000137000232B704FF0FF30BDE8F8832B70D7
:102F9000FDF7CEFF01232B70D5E73168194A488829
:102FA00000231370C0F14002944238BF224600F162
:102FB000080C10448C444880A41A934204D0F85C56
:102FC0000CF803000133F8E71F444B883F2B0E4BEE
:102FD00002D805221A70AEE740220A804FF000089E
:102FE000012083F80080FFF789FBC6F80080A2E784
:102FF0002C702046BDE8F883F58EFF1FF88EFF1F6A
:10300000F38EFF1FFC8EFF1F048FFF1F07B502AB5F
:10301000012103F8010D1846FFF786FF03B05DF8A4
:1030200004FBFFFF10B50D4B1B78B3B10C4B1968B7
:103030001C4691B14B8883B10A4A002010703F2B87
:1030400004DCCA18002010720133F8E740230B801B
:103050000120FFF753FB0023236010BDF38EFF1FF9
:10306000F88EFF1F048FFF1F10B50B4B1B788BB919
:103070000A4A11684B8814463F2B04DCCA1800200A
:1030800010720133F8E740230B800120FFF736FB75
:103090000023236010BD00BFF58EFF1FF88EFF1FB9
:1030A000024B1A6801321A60704700BF408CFF1F44
:1030B00008B50B4C2368580301D5FFF75FFB236865
:1030C000590501D5FEF70AFC23681A0501D5FEF75C
:1030D00063FF2368DB04ECD5FFF7DEF9E9E700BF07
:1030E0003480044008B5FFF7E3FFFFFF014B1022D7
:1030F0001A807047002005407047FFFFEFF31383ED
:103100009BB9EFF3108098B9EFF3058323B10F2B30
:1031100004D9084A985C01E04FF48070EFF3118302
:103120003BB1834238BF184670474FF0FF307047BD
:1031300018467047F0E300E010B50023B0FBF2F44E
:1031400002FB1400092894BF30303730C0B2C85495
:1031500020460CB10133F1E7CA18547022469A4256
:1031600006DA885CCC5C8C54C8540132013BF6E72B
:10317000084610BD70B50F4E0F4D761BB61007D028
:10318000043D0024013455F8043F9847A642F9D184
:103190000A4E0B4D761B00F007FAB61008D0043D1E
:1031A0000024013455F8043F9847A642F9D170BD78
:1031B00070BD00BFB4350000B4350000D435000048
:1031C000B4350000032A70B428D940EA01039B07F4
:1031D00013D005780C78A54224D1013A002305E0EC
:1031E00010F8015F11F8014FA5421BD1934203F182
:1031F0000103F5D1002070BC70470C4603462568DA
:103200001E68AE422146184604F1040403F104038B
:1032100004D1043A032A18462146F0D8002AD8D10E
:103220001046E8E7281B70BC704700BF20F0030180
:1032300010F00300C0F1000051F8043B00F1040C51
:103240004FEACC0C6FF000021CBF22FA0CF21343C1
:103250004FF0010C4CEA0C2C4CEA0C4CA3EB0C028A
:1032600022EA030212EACC1204BF51F8043B0430F4
:10327000F4D013F0FF0F1FBF013013F47F4F013064
:1032800013F47F0F18BF0130704700BF024B13B11A
:103290000248FDF7E7B8704700000000A1320000C7
:1032A00038B5094D094C641BA41018BF05EB840503
:1032B00005D0013C55F8043D9847002CF9D1BDE8F4
:1032C000384000F087B900BF000000000000000097
:1032D0004008FE4340A004404408FE4344A004408C
:1032E0000018FE4300C004403000FE43309004400C
:1032F0003400FE43349004401C18FE431CC00440BC
:103300001018FE4310C004400818FE4308C00440D3
:103310000C18FE430CC004400C10FE430CB00440DB
:103320001010FE4310B004401810FE4318B00440C3
:103330001C10FE431CB004401410FE4314B00440A3
:103340000418FE4304C004400010FE4300B00440D3
:103350000008FE4300A004400408FE4304A004400B
:103360000C08FE430CA004400808FE4308A00440DB
:103370001418FE4314C004401818FE4318C004403B
:103380000410FE4304B004400810FE4308B004409B
:103390001400FE43149004404C08FE434CA004402B
:1033A0000420FE4304D004402410FE4324B0044013
:1033B0002010FE4320B004402810FE4328B00440F3
:1033C0002C10FE432CB004400020FE4300D00440EB
:1033D0004808FE4348A004401000FE4310900440FB
:1033E0000000000000000000050F00000B0F0000AF
:1033F000F50E0000F90E0000FD0E0000010F0000A8
:103400000000000000000000251000003D1000003A
:103410000D10000015100000111000001910000020
:10342000A10F0000B50F0000D50F0000D90F00005C
:10343000DF0F0000E50F0000ED0F0000FD0F0000A2
:103440001D10000021100000710F00007D0F000012
:10345000890F0000950F00004D1000003110000092
:1034600000000000000000003911000051110000B0
:103470002111000029110000251100002D1100006C
:10348000B5100000C9100000E9100000ED100000A8
:10349000F3100000F91000000111000011110000EC
:1034A000311100003511000085100000911000005E
:1034B0009D100000A91000006111000045110000DE
:1034C00000000000000000004D1200006512000026
:1034D000351200003D1200003912000041120000B8
:1034E000C9110000DD110000FD11000001120000F3
:1034F000071200000D120000151200002512000036
:10350000451200004912000099110000A5110000A9
:10351000B1110000BD110000751200005912000029
:103520001519151900010000D089FF1F12000000B5
:1035300000020000FA89FF1F49000000002200007D
:10354000438AFF1F21000000002100000C8AFF1F9A
:103550000900000000220100648AFF1FB50000007E
:10356000002101002C8AFF1F090000000003000059
:103570003A8BFF1F0000000001030904E289FF1FCE
:1035800000000000020309041A8BFF1F0000000066
:10359000030309043E8BFF1F000000000000000031
:1035A0000000000000000000F8B500BFF8BC08BC37
:1035B0009E4670478D32000035040000690400000B
:1035C000010B0000150F0000691000007D110000C4
:0435D0009112000054
:0435D400F8B500BF87
:1035D800084B10B51C681C6054B194FAA4F2B2FAF6
:1035E80082F2054B53F822309847631E1C40F4D1F1
:1035F80010BD00BFA0D00440BC89FF1F084B10B508
:103608001C681C6054B194FAA4F2B2FA82F2054B19
:1036180053F822309847631E1C40F4D110BD00BFF8
:10362800A0C004409C89FF1F084B10B51C681C6093
:1036380054B194FAA4F2B2FA82F2054B53F822304C
:103648009847631E1C40F4D110BD00BFA0B00440D1
:103658006C89FF1F084B10B51C681C6054B194FAA4
:10366800A4F2B2FA82F2054B53F822309847631E4F
:103678001C40F4D110BD00BFA0A004401C89FF1F4E
:10368800084B10B51C681C6054B194FAA4F2B2FA45
:1036980082F2054B53F822309847631E1C40F4D140
:1036A80010BD00BFA0900440E488FF1F040105027C
:1036B80006030704080509060A070B080D0E0F1074
:1036C80011121314FD0B0000FD0B0000FD0B000090
:1036D800FD0B0000FD0B0000FD0B0000FD0B0000C2
:1036E800FD0B0000FD0B0000FD0B0000FD0B0000B2
:1036F800FD0B0000FD0B0000FD0B0000FD0B0000A2
:10370800FD0B0000FD0B0000FD0B0000FD0B000091
:10371800FD0B0000FD0B0000FD0B0000FD0B000081
:10372800FD0B0000FD0B0000FD0B0000FD0B000071
:10373800FD0B0000FD0B0000FD0B0000FD0B000061
:10374800FD0B0000FD0B0000FD0B0000FD0B000051
:10375800FD0B0000FD0B0000FD0B0000FD0B000041
:10376800FD0B0000FD0B0000FD0B0000FD0B000031
:10377800FD0B0000FD0B0000FD0B0000FD0B000021
:10378800FD0B0000FD0B0000FD0B0000FD0B000011
:10379800FD0B0000FD0B0000FD0B0000FD0B000001
:1037A800FD0B00000A0401090A080000FFFFFFFFE3
:1037B8001201100100000040C016D10400020102ED
:1037C800030118035400650065006E00730079005A
:1037D8006400750069006E006F000902490002016B
:1037E80000C0320904000002030000000921110191
:1037F800000122210007058103400001070502039B
:10380800200002090401000203000000092111013F
:10381800000122B500070583031000010705040312
:1038280002000106C9FF0904A15C7508150026FFFE
:103838000095400975810295200976910295040941
:1038480076B102C005010905A101A100850105099C
:1038580019012907150025019507750181029501B0
:10386800750181030501093009311581257F95020C
:1038780075088102850215002501050A0901A102C2
:103888000508094B750195019102C0050A0902A1B5
:10389800020508094B750195019102C0050A090343
:1038A800A1020508094B750195019102C0050A0995
:1038B80004A1020508094B750195019102C0050A8A
:1038C8000905A1020508094B750195019102C0057A
:1038D8000A0906A1020508094B750195019102C064
:1038E800050A0907A1020508094B7501950191020E
:1038F800C0950175099103C0C0002003530044001E
:1039080056005800200043006F006E0074007200DB
:103918006F006C006C0065007200040309040C035E
:10392800000000000000000000000000000000008F
:04393800000000008B
:00000001FF
